{
  "address": "0xBc22E20975E980E484f617f3053680fb01E2e62A",
  "abi": [
    {
      "inputs": [
        {
          "internalType": "address",
          "name": "_receiptNFT",
          "type": "address"
        }
      ],
      "stateMutability": "nonpayable",
      "type": "constructor"
    },
    {
      "anonymous": false,
      "inputs": [
        {
          "indexed": false,
          "internalType": "address",
          "name": "merchant",
          "type": "address"
        },
        {
          "indexed": false,
          "internalType": "address",
          "name": "posAddress",
          "type": "address"
        }
      ],
      "name": "POSCreated",
      "type": "event"
    },
    {
      "inputs": [
        {
          "internalType": "address",
          "name": "newOwner",
          "type": "address"
        }
      ],
      "name": "changeOwner",
      "outputs": [],
      "stateMutability": "nonpayable",
      "type": "function"
    },
    {
      "inputs": [
        {
          "internalType": "address",
          "name": "_adminPaymentAddress",
          "type": "address"
        }
      ],
      "name": "changePaymentAddress",
      "outputs": [],
      "stateMutability": "nonpayable",
      "type": "function"
    },
    {
      "inputs": [
        {
          "internalType": "string",
          "name": "_name",
          "type": "string"
        },
        {
          "internalType": "address",
          "name": "_paymentAddress",
          "type": "address"
        },
        {
          "internalType": "string",
          "name": "_ipfsProductLink",
          "type": "string"
        }
      ],
      "name": "createPOS",
      "outputs": [],
      "stateMutability": "nonpayable",
      "type": "function"
    },
    {
      "inputs": [
        {
          "internalType": "address",
          "name": "_owner",
          "type": "address"
        }
      ],
      "name": "getOwnerPOSAddresses",
      "outputs": [
        {
          "internalType": "address[]",
          "name": "",
          "type": "address[]"
        }
      ],
      "stateMutability": "view",
      "type": "function"
    },
    {
      "inputs": [
        {
          "internalType": "address",
          "name": "",
          "type": "address"
        },
        {
          "internalType": "uint256",
          "name": "",
          "type": "uint256"
        }
      ],
      "name": "ownerAddresses",
      "outputs": [
        {
          "internalType": "address",
          "name": "",
          "type": "address"
        }
      ],
      "stateMutability": "view",
      "type": "function"
    },
    {
      "inputs": [],
      "name": "posCount",
      "outputs": [
        {
          "internalType": "uint256",
          "name": "",
          "type": "uint256"
        }
      ],
      "stateMutability": "view",
      "type": "function"
    },
    {
      "inputs": [],
      "name": "receiptNFT",
      "outputs": [
        {
          "internalType": "address",
          "name": "",
          "type": "address"
        }
      ],
      "stateMutability": "view",
      "type": "function"
    }
  ],
  "transactionHash": "0xa52364df244a82a586981d595426b94dfe6d16b3663ad2517e909615471633ed",
  "args": [
    "0xdfE51561adacdE663fBA63Fbf952A3996F81d1DA"
  ],
  "numDeployments": 1,
  "solcInputHash": "060045cb97dca116ba550a742a6013c0",
  "bytecode": "0x608034608057601f611bd138819003918201601f19168301916001600160401b03831184841017608457808492602094604052833981010312608057516001600160a01b0381169081900360805760018060a01b031933816003541617600355338160025416176002556004541617600455604051611b3890816100998239f35b5f80fd5b634e487b7160e01b5f52604160045260245ffdfe60406080815260049081361015610014575f80fd5b5f3560e01c80637124d61314610395578063920a9808146103775780639ff26f6e146102ce578063a6f9dae114610287578063b12694ad14610232578063cda3ad3b146100935763d7a7b89914610069575f80fd5b3461008f575f36600319011261008f57905490516001600160a01b039091168152602090f35b5f80fd5b50903461008f57606036600319011261008f5767ffffffffffffffff91813583811161008f576100c6903690840161045a565b6001600160a01b03936024358581169081900361008f5760443582811161008f576100f4903690870161045a565b9086600254169187875416928651956115f6808801968888109088111761021f579261015b92610138899897969360c09661050d8b3960e0895260e08901906104e8565b926020880152308a880152606087015233608087015285820360a08701526104e8565b92015203905ff08015610215578316335f525f602052815f20938454946801000000000000000086101561020257856101bb9160017fad4c022295ffcdfa84f7a585bd6ff378616658e90f4324a63a6222ad85b208d697980181556103fb565b819291549060031b9184831b921b19161790558151903382526020820152a1600154905f1982146101ef5760018281019055005b601190634e487b7160e01b5f525260245ffd5b604185634e487b7160e01b5f525260245ffd5b50513d5f823e3d90fd5b60418a634e487b7160e01b5f525260245ffd5b503461008f578060031936011261008f5761024b6103e5565b906024359160018060a01b038091165f525f602052815f20805484101561008f57602093610278916103fb565b92905490519260031b1c168152f35b3461008f57602036600319011261008f576102a06103e5565b600354906001600160a01b03906102ba33838516146104b0565b6001600160a01b0319909216911617600355005b503461008f576020908160031936011261008f576001600160a01b0391826102f46103e5565b165f525f8152815f209082518082845491828152019081945f52835f20905f5b818110610361575050508161032a910382610424565b8351938285019183865251809252840192915f5b82811061034b5785850386f35b835187168552938101939281019260010161033e565b8254891684529285019260019283019201610314565b503461008f575f36600319011261008f576020906001549051908152f35b3461008f57602036600319011261008f576103ae6103e5565b6003546001600160a01b0391906103c890831633146104b0565b166bffffffffffffffffffffffff60a01b60025416176002555f80f35b600435906001600160a01b038216820361008f57565b8054821015610410575f5260205f2001905f90565b634e487b7160e01b5f52603260045260245ffd5b90601f8019910116810190811067ffffffffffffffff82111761044657604052565b634e487b7160e01b5f52604160045260245ffd5b81601f8201121561008f5780359067ffffffffffffffff8211610446576040519261048f601f8401601f191660200185610424565b8284526020838301011161008f57815f926020809301838601378301015290565b156104b757565b60405162461bcd60e51b815260206004820152600960248201526827b7363ca7bbb732b960b91b6044820152606490fd5b805180835260209291819084018484015e5f828201840152601f01601f191601019056fe608060405234610452576115f68038038061001981610456565b92833981019060e0818303126104525780516001600160401b039190828111610452578361004891830161047b565b906020916100578383016104cc565b90610064604084016104cc565b92610071606082016104cc565b9561007e608083016104cc565b9760a0830151908282116104525761009d60c0916100a493860161047b565b93016104cc565b926100ae336104e0565b60646005555f60075580519482861161043e576001958654928784811c94168015610434575b8a851014610420578190601f948581116103d2575b508a90858311600114610371575f92610366575b50505f19600383901b1c191690871b1786555b60018060a01b0380978160018060a01b031993168360025416176002551681600354161760035586600499169089541617885582519182116103535760089283548681811c91168015610349575b8982101461033657908183859493116102e6575b5088918311600114610287575f9261027c575b50505f19600383901b1c191690841b1781555b600980546001600160a81b0319169290911b610100600160a81b0316919091179190911790555f54339082160361023a578316156101e8576101d9836104e0565b6040516110cf90816105278239f35b60405162461bcd60e51b815291820152602660248201527f4f776e61626c653a206e6577206f776e657220697320746865207a65726f206160448201526564647265737360d01b606482015260849150fd5b60648383806040519262461bcd60e51b845283015260248201527f4f776e61626c653a2063616c6c6572206973206e6f7420746865206f776e65726044820152fd5b015190505f80610185565b90869350601f19831691855f52895f20925f5b8b8282106102d057505084116102b8575b505050811b018155610198565b01515f1960f88460031b161c191690555f80806102ab565b8385015186558a9790950194938401930161029a565b90919250845f52885f208380860160051c8201928b871061032d575b9186958a929594930160051c01915b82811061031f575050610172565b5f8155869550899101610311565b92508192610302565b60228a634e487b7160e01b5f525260245ffd5b90607f169061015e565b604188634e487b7160e01b5f525260245ffd5b015190505f806100fd565b5f8a81528c81208b9550929190601f198516908e5b8282106103bb57505084116103a3575b505050811b018655610110565b01515f1960f88460031b161c191690555f8080610396565b8385015186558d979095019493840193018e610386565b909150885f528a5f208580850160051c8201928d8610610417575b918b91869594930160051c01915b8281106104095750506100e9565b5f81558594508b91016103fb565b925081926103ed565b634e487b7160e01b5f52602260045260245ffd5b93607f16936100d4565b634e487b7160e01b5f52604160045260245ffd5b5f80fd5b6040519190601f01601f191682016001600160401b0381118382101761043e57604052565b81601f82011215610452578051906001600160401b03821161043e576104aa601f8301601f1916602001610456565b928284526020838301011161045257815f9260208093018386015e8301015290565b51906001600160a01b038216820361045257565b5f80546001600160a01b039283166001600160a01b03198216811783559216907f8be0079c531659141344cd1fd0a4f28419497f9722a3daafe3b4186f6b6457e09080a356fe6080806040526004361015610012575f80fd5b5f905f3560e01c90816306fdde0314610c44575080635e1e100414610bfa578063633423be14610bd2578063715018a614610b7b5780638da5cb5b14610b54578063a7b7229414610b1c578063b6adaaff14610768578063c860f4eb146103c5578063ec7dd7bb14610244578063f2fde38b1461017c5763f6a0bfd614610097575f80fd5b346101795780600319360112610179576040516008545f826100b883610cea565b91828252602093600190856001821691825f146101595750506001146100fe575b506100e692500383610d22565b6100fa604051928284938452830190610d44565b0390f35b84915060085f527ff3f7a9fe364faab93b216da50a3214154f22a0a2b415b23a84c8169e8b636ee3905f915b8583106101415750506100e69350820101856100d9565b8054838901850152879450869390920191810161012a565b60ff1916858201526100e695151560051b85010192508791506100d99050565b80fd5b503461017957602036600319011261017957610196610d68565b61019e610e55565b6001600160a01b039081169081156101f0575f54826bffffffffffffffffffffffff60a01b8216175f55167f8be0079c531659141344cd1fd0a4f28419497f9722a3daafe3b4186f6b6457e05f80a380f35b60405162461bcd60e51b815260206004820152602660248201527f4f776e61626c653a206e6577206f776e657220697320746865207a65726f206160448201526564647265737360d01b6064820152608490fd5b5034610179576020806003193601126103c1576004359061026482610dd4565b5091600180930190600261027782610dd4565b50015461028382610dd4565b50600301546001600160a01b0316600461029c84610dd4565b5001549160ff60066102bb60056102b288610dd4565b50015496610dd4565b50015416946040519788915f918154916102d483610cea565b928386528b6001821691825f1461039b57505060011461035a575b50505060ff94939291610303910389610d22565b6103186040519860c08a5260c08a0190610d44565b96880152604087015260a01c1615156060850152608084015260028110156103465782935060a08301520390f35b634e487b7160e01b84526021600452602484fd5b8a93505f92919252825f20915f925b828410610381575050508201018161030360ff6102ef565b849295829585835492010152019101909289928b94610369565b60ff19168782015293151560051b86019093019350849250610303915060ff90506102ef565b5080fd5b5034610179576080366003190112610179576004359067ffffffffffffffff8211610179573660238301121561017957816004013561040381610d7e565b926104116040519485610d22565b81845236602483830101116107605781839260246020930183870137840101526024356001600160a01b0381168103610764576064359260028410156107605761045f60ff60095416610d9a565b6007549360405194610100860186811067ffffffffffffffff82111761074c576040528552816020860152604435604086015260018060a01b03831660608601528360808601528360a08601524260c086015260e085015260065468010000000000000000811015610738578060016104db9201600655610dd4565b6107245784518155602085015180519067ffffffffffffffff8211610710576105076001840154610cea565b601f81116106cc575b50602090601f831160011461065b57918060e094926006948992610650575b50508160011b915f199060031b1c19161760018201555b604087015160028201556003810160018060a01b036060890151166bffffffffffffffffffffffff60a01b8254161790556004810160018060a01b0360808901511681549060ff60a01b60a08b0151151560a01b16916affffffffffffffffffffff60a81b161717905560c087015160058201550194015193600285101561034657610614939460ff801983541691161790557f81eed85c4f5059fe9762eae3dd842490b386054bde47350ddcb0373ab03a6b08600754938492604051918291604083526040830190610d44565b60443560208301526001600160a01b03909516940390a35f19811461063c5760010160075580f35b634e487b7160e01b82526011600452602482fd5b015190505f8061052f565b906001840187526020872091875b601f19851681106106b457509260e0949260019260069583601f1981161061069c575b505050811b016001820155610546565b01515f1960f88460031b161c191690555f808061068c565b91926020600181928685015181550194019201610669565b60018401875260208720601f840160051c810160208510610709575b601f830160051c820181106106fe575050610510565b8881556001016106e8565b50806106e8565b634e487b7160e01b86526041600452602486fd5b634e487b7160e01b84526004849052602484fd5b634e487b7160e01b84526041600452602484fd5b634e487b7160e01b5f52604160045260245ffd5b8280fd5b5f80fd5b506020806003193601126107645760043561078760ff60095416610d9a565b61079081610dd4565b506004810190815460ff8160a01c16610af1576001600160a01b0319163317825560038101546001600160a01b039290831680610a95575060028201543403610a5f5782600254165f808080612710946107f7866107f034600554610e21565b0434610e48565b90828215610a56575bf1156109d8575f8080809387600454169061081d34600554610e21565b0490828215610a4d575bf1156109d8575b805460ff60a01b198116600160a01b179091556009546040516001938401805460089390931c861694919283925f9261086683610cea565b928b6001821691825f14610a275750506001146109e3575b5050506108a691816817b7333a173539b7b760b91b6009935203601619810184520182610d22565b823b15610764576108e092845f809460405196879586948593636902622f60e11b8552166004840152604060248401526044830190610d44565b03925af180156109d8576109b7575b50908260049260095460081c166040519384809263224f2cf760e11b82525afa9182156109ac578492610957575b50916060917f8f4e00b4200dc5aca7c614efa3bad4a116d3f3121dff4359a0b5d2d4260f4dfe93604051923384528301526040820152a180f35b9150918082813d83116109a5575b61096f8183610d22565b810103126109a157905190917f8f4e00b4200dc5aca7c614efa3bad4a116d3f3121dff4359a0b5d2d4260f4dfe61091d565b8380fd5b503d610965565b6040513d86823e3d90fd5b9190935067ffffffffffffffff821161074c576040919091525f92826108ef565b6040513d5f823e3d90fd5b8a929493505f52815f20905f915b858310610a0e57505050906009916108a69382010191819361087e565b81939294508054838689010152019201899185936109f1565b60ff19168782015284151590940286019093019350849250600991506108a6905061087e565b506108fc610827565b506108fc610800565b60405162461bcd60e51b815260048101869052600e60248201526d4e6f74456e6f7567684d6f6e657960901b6044820152606490fd5b610aec9084600254166002850190610acc825491610ac46127109384610abd82600554610e21565b0490610e48565b903386610eac565b8685541690610ae5886004541693600554905490610e21565b0492610eac565b61082e565b60405162461bcd60e51b815260048082018790526024820152631410525160e21b6044820152606490fd5b34610764575f36600319011261076457610b34610e55565b602060095460ff8082161516809160ff1916176009556040519015158152f35b34610764575f366003190112610764575f546040516001600160a01b039091168152602090f35b34610764575f36600319011261076457610b93610e55565b5f80546001600160a01b0319811682556001600160a01b03167f8be0079c531659141344cd1fd0a4f28419497f9722a3daafe3b4186f6b6457e08280a3005b34610764575f366003190112610764576002546040516001600160a01b039091168152602090f35b34610764576020366003190112610764576020610c15610d68565b610c1d610e55565b600280546001600160a01b0319166001600160a01b03929092169182179055604051908152f35b34610764575f366003190112610764575f60018260015492610c6584610cea565b92838352602094856001821691825f14610159575050600114610c8f57506100e692500383610d22565b84915060015f527fb10e2d527612073b26eecdfd717e6a320cf44b4afac2b0732d9fcbe2b7fa0cf6905f915b858310610cd25750506100e69350820101856100d9565b80548389018501528794508693909201918101610cbb565b90600182811c92168015610d18575b6020831014610d0457565b634e487b7160e01b5f52602260045260245ffd5b91607f1691610cf9565b90601f8019910116810190811067ffffffffffffffff82111761074c57604052565b805180835260209291819084018484015e5f828201840152601f01601f1916010190565b600435906001600160a01b038216820361076457565b67ffffffffffffffff811161074c57601f01601f191660200190565b15610da157565b60405162461bcd60e51b815260206004820152600b60248201526a14dd1bdc9950db1bdcd95960aa1b6044820152606490fd5b600654811015610e0d5760079060065f52027ff652222313e28459528d920b65115c16c04f3efc82aaedc97be59f3f377c0d3f01905f90565b634e487b7160e01b5f52603260045260245ffd5b81810292918115918404141715610e3457565b634e487b7160e01b5f52601160045260245ffd5b91908203918211610e3457565b5f546001600160a01b03163303610e6857565b606460405162461bcd60e51b815260206004820152602060248201527f4f776e61626c653a2063616c6c6572206973206e6f7420746865206f776e65726044820152fd5b6040516323b872dd60e01b60208083019182526001600160a01b039485166024840152948416604483015260648083019690965294815292939260a081019267ffffffffffffffff928385118386101761074c57169160e082019081118482101761074c576040528483527f5361666545524332303a206c6f772d6c6576656c2063616c6c206661696c656460c082015251610f76935f91829182855af13d15610ff8573d91610f5b83610d7e565b92610f696040519485610d22565b83523d5f8785013e610ffc565b805180610f8257505050565b818391810103126107645781015180159081150361076457610fa15750565b6084906040519062461bcd60e51b82526004820152602a60248201527f5361666545524332303a204552433230206f7065726174696f6e20646964206e6044820152691bdd081cdd58d8d9595960b21b6064820152fd5b6060915b9192901561105e5750815115611010575090565b3b156110195790565b60405162461bcd60e51b815260206004820152601d60248201527f416464726573733a2063616c6c20746f206e6f6e2d636f6e74726163740000006044820152606490fd5b8251909150156110715750805190602001fd5b60405162461bcd60e51b815260206004820152908190611095906024830190610d44565b0390fdfea264697066735822122004f77a0c918195a7ececa0a89734c1d93602bcc47f2d05bcf29af316a5f6e46564736f6c63430008190033a26469706673582212204ef6b8df569ac66e0ac40329e4eecba21d1529ad617d6e19aa105538f641762764736f6c63430008190033",
  "devdoc": {
    "kind": "dev",
    "methods": {},
    "version": 1
  },
  "userdoc": {
    "kind": "user",
    "methods": {},
    "version": 1
  },
  "storageLayout": {
    "storage": [
      {
        "astId": 13770,
        "contract": "src/POSFactory.sol:POSFactory",
        "label": "ownerAddresses",
        "offset": 0,
        "slot": "0",
        "type": "t_mapping(t_address,t_array(t_address)dyn_storage)"
      },
      {
        "astId": 13772,
        "contract": "src/POSFactory.sol:POSFactory",
        "label": "posCount",
        "offset": 0,
        "slot": "1",
        "type": "t_uint256"
      },
      {
        "astId": 13774,
        "contract": "src/POSFactory.sol:POSFactory",
        "label": "adminPaymentAddress",
        "offset": 0,
        "slot": "2",
        "type": "t_address"
      },
      {
        "astId": 13776,
        "contract": "src/POSFactory.sol:POSFactory",
        "label": "owner",
        "offset": 0,
        "slot": "3",
        "type": "t_address"
      },
      {
        "astId": 13778,
        "contract": "src/POSFactory.sol:POSFactory",
        "label": "receiptNFT",
        "offset": 0,
        "slot": "4",
        "type": "t_address"
      }
    ],
    "types": {
      "t_address": {
        "encoding": "inplace",
        "label": "address",
        "numberOfBytes": "20"
      },
      "t_array(t_address)dyn_storage": {
        "base": "t_address",
        "encoding": "dynamic_array",
        "label": "address[]",
        "numberOfBytes": "32"
      },
      "t_mapping(t_address,t_array(t_address)dyn_storage)": {
        "encoding": "mapping",
        "key": "t_address",
        "label": "mapping(address => address[])",
        "numberOfBytes": "32",
        "value": "t_array(t_address)dyn_storage"
      },
      "t_uint256": {
        "encoding": "inplace",
        "label": "uint256",
        "numberOfBytes": "32"
      }
    }
  }
}