{
  "address": "0xdfE51561adacdE663fBA63Fbf952A3996F81d1DA",
  "abi": [
    {
      "inputs": [],
      "stateMutability": "nonpayable",
      "type": "constructor"
    },
    {
      "anonymous": false,
      "inputs": [
        {
          "indexed": true,
          "internalType": "address",
          "name": "owner",
          "type": "address"
        },
        {
          "indexed": true,
          "internalType": "address",
          "name": "approved",
          "type": "address"
        },
        {
          "indexed": true,
          "internalType": "uint256",
          "name": "tokenId",
          "type": "uint256"
        }
      ],
      "name": "Approval",
      "type": "event"
    },
    {
      "anonymous": false,
      "inputs": [
        {
          "indexed": true,
          "internalType": "address",
          "name": "owner",
          "type": "address"
        },
        {
          "indexed": true,
          "internalType": "address",
          "name": "operator",
          "type": "address"
        },
        {
          "indexed": false,
          "internalType": "bool",
          "name": "approved",
          "type": "bool"
        }
      ],
      "name": "ApprovalForAll",
      "type": "event"
    },
    {
      "anonymous": false,
      "inputs": [
        {
          "indexed": true,
          "internalType": "address",
          "name": "previousOwner",
          "type": "address"
        },
        {
          "indexed": true,
          "internalType": "address",
          "name": "newOwner",
          "type": "address"
        }
      ],
      "name": "OwnershipTransferred",
      "type": "event"
    },
    {
      "anonymous": false,
      "inputs": [
        {
          "indexed": true,
          "internalType": "address",
          "name": "from",
          "type": "address"
        },
        {
          "indexed": true,
          "internalType": "address",
          "name": "to",
          "type": "address"
        },
        {
          "indexed": true,
          "internalType": "uint256",
          "name": "tokenId",
          "type": "uint256"
        }
      ],
      "name": "Transfer",
      "type": "event"
    },
    {
      "inputs": [
        {
          "internalType": "address",
          "name": "to",
          "type": "address"
        },
        {
          "internalType": "uint256",
          "name": "tokenId",
          "type": "uint256"
        }
      ],
      "name": "approve",
      "outputs": [],
      "stateMutability": "nonpayable",
      "type": "function"
    },
    {
      "inputs": [
        {
          "internalType": "address",
          "name": "owner",
          "type": "address"
        }
      ],
      "name": "balanceOf",
      "outputs": [
        {
          "internalType": "uint256",
          "name": "",
          "type": "uint256"
        }
      ],
      "stateMutability": "view",
      "type": "function"
    },
    {
      "inputs": [],
      "name": "baseUri",
      "outputs": [
        {
          "internalType": "string",
          "name": "",
          "type": "string"
        }
      ],
      "stateMutability": "view",
      "type": "function"
    },
    {
      "inputs": [],
      "name": "currentTokenCounter",
      "outputs": [
        {
          "internalType": "uint256",
          "name": "",
          "type": "uint256"
        }
      ],
      "stateMutability": "view",
      "type": "function"
    },
    {
      "inputs": [
        {
          "internalType": "uint256",
          "name": "tokenId",
          "type": "uint256"
        }
      ],
      "name": "getApproved",
      "outputs": [
        {
          "internalType": "address",
          "name": "",
          "type": "address"
        }
      ],
      "stateMutability": "view",
      "type": "function"
    },
    {
      "inputs": [
        {
          "internalType": "address",
          "name": "owner",
          "type": "address"
        },
        {
          "internalType": "address",
          "name": "operator",
          "type": "address"
        }
      ],
      "name": "isApprovedForAll",
      "outputs": [
        {
          "internalType": "bool",
          "name": "",
          "type": "bool"
        }
      ],
      "stateMutability": "view",
      "type": "function"
    },
    {
      "inputs": [],
      "name": "name",
      "outputs": [
        {
          "internalType": "string",
          "name": "",
          "type": "string"
        }
      ],
      "stateMutability": "view",
      "type": "function"
    },
    {
      "inputs": [],
      "name": "owner",
      "outputs": [
        {
          "internalType": "address",
          "name": "",
          "type": "address"
        }
      ],
      "stateMutability": "view",
      "type": "function"
    },
    {
      "inputs": [
        {
          "internalType": "uint256",
          "name": "tokenId",
          "type": "uint256"
        }
      ],
      "name": "ownerOf",
      "outputs": [
        {
          "internalType": "address",
          "name": "",
          "type": "address"
        }
      ],
      "stateMutability": "view",
      "type": "function"
    },
    {
      "inputs": [],
      "name": "renounceOwnership",
      "outputs": [],
      "stateMutability": "nonpayable",
      "type": "function"
    },
    {
      "inputs": [
        {
          "internalType": "address",
          "name": "to",
          "type": "address"
        },
        {
          "internalType": "string",
          "name": "uri",
          "type": "string"
        }
      ],
      "name": "safeMint",
      "outputs": [],
      "stateMutability": "nonpayable",
      "type": "function"
    },
    {
      "inputs": [
        {
          "internalType": "address",
          "name": "from",
          "type": "address"
        },
        {
          "internalType": "address",
          "name": "to",
          "type": "address"
        },
        {
          "internalType": "uint256",
          "name": "tokenId",
          "type": "uint256"
        }
      ],
      "name": "safeTransferFrom",
      "outputs": [],
      "stateMutability": "nonpayable",
      "type": "function"
    },
    {
      "inputs": [
        {
          "internalType": "address",
          "name": "from",
          "type": "address"
        },
        {
          "internalType": "address",
          "name": "to",
          "type": "address"
        },
        {
          "internalType": "uint256",
          "name": "tokenId",
          "type": "uint256"
        },
        {
          "internalType": "bytes",
          "name": "data",
          "type": "bytes"
        }
      ],
      "name": "safeTransferFrom",
      "outputs": [],
      "stateMutability": "nonpayable",
      "type": "function"
    },
    {
      "inputs": [
        {
          "internalType": "address",
          "name": "operator",
          "type": "address"
        },
        {
          "internalType": "bool",
          "name": "approved",
          "type": "bool"
        }
      ],
      "name": "setApprovalForAll",
      "outputs": [],
      "stateMutability": "nonpayable",
      "type": "function"
    },
    {
      "inputs": [
        {
          "internalType": "string",
          "name": "newUri",
          "type": "string"
        }
      ],
      "name": "setBaseURI",
      "outputs": [],
      "stateMutability": "nonpayable",
      "type": "function"
    },
    {
      "inputs": [
        {
          "internalType": "bytes4",
          "name": "interfaceId",
          "type": "bytes4"
        }
      ],
      "name": "supportsInterface",
      "outputs": [
        {
          "internalType": "bool",
          "name": "",
          "type": "bool"
        }
      ],
      "stateMutability": "view",
      "type": "function"
    },
    {
      "inputs": [],
      "name": "symbol",
      "outputs": [
        {
          "internalType": "string",
          "name": "",
          "type": "string"
        }
      ],
      "stateMutability": "view",
      "type": "function"
    },
    {
      "inputs": [
        {
          "internalType": "uint256",
          "name": "tokenId",
          "type": "uint256"
        }
      ],
      "name": "tokenURI",
      "outputs": [
        {
          "internalType": "string",
          "name": "",
          "type": "string"
        }
      ],
      "stateMutability": "view",
      "type": "function"
    },
    {
      "inputs": [
        {
          "internalType": "address",
          "name": "from",
          "type": "address"
        },
        {
          "internalType": "address",
          "name": "to",
          "type": "address"
        },
        {
          "internalType": "uint256",
          "name": "tokenId",
          "type": "uint256"
        }
      ],
      "name": "transferFrom",
      "outputs": [],
      "stateMutability": "nonpayable",
      "type": "function"
    },
    {
      "inputs": [
        {
          "internalType": "address",
          "name": "newOwner",
          "type": "address"
        }
      ],
      "name": "transferOwnership",
      "outputs": [],
      "stateMutability": "nonpayable",
      "type": "function"
    }
  ],
  "transactionHash": "0xe8953f9c92408ba959acbf7e7d322d671e16d16ea02bd1e4595eb40e94fa2bfc",
  "args": [],
  "numDeployments": 1,
  "solcInputHash": "060045cb97dca116ba550a742a6013c0",
  "bytecode": "0x6080346102d4576001600160401b039060409080820183811182821017610226578252600e81526020906d53746f726546726f6e7420504f5360901b8282015282519383850185811082821117610226578452600385526214d19560ea1b83860152815181811161022657806100755f546102d8565b93601f948581116102a8575b508590858311600114610245575f9261023a575b50508160011b915f199060031b1c1916175f555b8451908111610226576001906100bf82546102d8565b8381116101f0575b5083838211600114610192578192939495965f92610187575b50505f19600383901b1c191690821b1790555b60078054336001600160a01b0319821681179092556001600160a01b03167f8be0079c531659141344cd1fd0a4f28419497f9722a3daafe3b4186f6b6457e05f80a36101406009546102d8565b90808211610168575b600e66697066733a2f2f60c81b01600955835161186590816103278239f35b61017f9260095f525f20910160051c810190610310565b5f8080610149565b015190505f806100e0565b601f19821690835f52855f20915f5b8181106101db575097838596979899106101c3575b505050811b0190556100f3565b01515f1960f88460031b161c191690555f80806101b6565b898301518455928501929187019187016101a1565b61021790835f52855f208580850160051c82019288861061021d575b0160051c0190610310565b5f6100c7565b9250819261020c565b634e487b7160e01b5f52604160045260245ffd5b015190505f80610095565b5f8080528781209350601f198516905b8882821061029257505090846001959493921061027a575b505050811b015f556100a9565b01515f1960f88460031b161c191690555f808061026d565b6001859682939686015181550195019301610255565b6102ce905f8052875f208780860160051c8201928a871061021d570160051c0190610310565b5f610081565b5f80fd5b90600182811c92168015610306575b60208310146102f257565b634e487b7160e01b5f52602260045260245ffd5b91607f16916102e7565b81811061031b575050565b5f815560010161031056fe608060409080825260049081361015610016575f80fd5b5f3560e01c90816301ffc9a714610ceb5750806306fdde0314610c3e578063081812fc14610c1f578063095ea7b314610ab157806323b872dd14610a8d57806342842e0e14610a5a578063449e59ee14610a3c57806355f804b3146108c55780636352211e1461089557806370a0823114610801578063715018a6146107a65780638da5cb5b1461077e57806395d89b411461069b5780639abc83201461067e578063a22cb465146105b4578063b88d4fde14610531578063c87b56dd146104fa578063d204c45e14610212578063e985e9c5146101c45763f2fde38b146100fc575f80fd5b346101c05760203660031901126101c057610115610d79565b9061011e611276565b6001600160a01b0391821692831561016e575050600754826001600160601b0360a01b821617600755167f8be0079c531659141344cd1fd0a4f28419497f9722a3daafe3b4186f6b6457e05f80a3005b906020608492519162461bcd60e51b8352820152602660248201527f4f776e61626c653a206e6577206f776e657220697320746865207a65726f206160448201526564647265737360d01b6064820152fd5b5f80fd5b82346101c057806003193601126101c0576020906101e0610d79565b6101e8610d8f565b9060018060a01b038091165f5260058452825f2091165f52825260ff815f20541690519015158152f35b5090346101c057806003193601126101c05761022c610d79565b67ffffffffffffffff906024358281116101c05761024d9036908601610e7e565b60085493600194858101600855815161026581610dda565b5f81526001600160a01b0385169485156104b7576103299183610324926102a86102a2835f52600260205260018060a01b0360405f205416151590565b156117e3565b5f828152600260205260409020546102ca906001600160a01b031615156102a2565b885f528160209960038b52885f208d8154019055815f5260028b52885f20816001600160601b0360a01b8254161790555f7fddf252ad1be2c89b69c2b068fc378daa952ba7f163c4a11628f55a4df523b3ef8180a4611652565b611321565b5f818152600260205260409020546001600160a01b03161561045d575f52600683525f2094815193841161044a57506103628554610e9c565b601f8111610404575b5081601f84116001146103a557509282939183925f9461039a575b50501b915f199060031b1c19161790555f80f35b015192505f80610386565b919083601f198116875f52845f20945f905b888383106103ea57505050106103d2575b505050811b019055005b01515f1960f88460031b161c191690555f80806103c8565b8587015188559096019594850194879350908101906103b7565b855f52825f20601f850160051c810191848610610440575b601f0160051c019085905b82811061043557505061036b565b5f8155018590610427565b909150819061041c565b604190634e487b7160e01b5f525260245ffd5b815162461bcd60e51b8152808801859052602e60248201527f45524337323155524953746f726167653a2055524920736574206f66206e6f6e60448201526d32bc34b9ba32b73a103a37b5b2b760911b6064820152608490fd5b835162461bcd60e51b81526020818b0181905260248201527f4552433732313a206d696e7420746f20746865207a65726f20616464726573736044820152606490fd5b5090346101c05760203660031901126101c05761051a61052d9235611345565b9051918291602083526020830190610d55565b0390f35b50346101c05760803660031901126101c05761054b610d79565b90610554610d8f565b916044356064359367ffffffffffffffff85116101c057366023860112156101c05761058f610324948660246105b298369301359101610e48565b926105a261059d84336110a3565b610fd3565b6105ad838383611167565b61175f565b005b5090346101c057806003193601126101c0576105ce610d79565b90602435918215158093036101c0576001600160a01b03169233841461063c5750335f526005602052805f20835f52602052805f2060ff1981541660ff8416179055519081527f17307eab39ab6107e8899845ad3d59bd9653f200f220920489ca2b5937696c3160203392a3005b6020606492519162461bcd60e51b8352820152601960248201527f4552433732313a20617070726f766520746f2063616c6c6572000000000000006044820152fd5b82346101c0575f3660031901126101c05761052d9061051a610ed4565b82346101c0575f3660031901126101c0578051905f9082600192600154936106c285610e9c565b90818452602095866001821691825f1461075c575050600114610701575b505061052d92916106f2910385610e0a565b51928284938452830190610d55565b9085925060015f527fb10e2d527612073b26eecdfd717e6a320cf44b4afac2b0732d9fcbe2b7fa0cf6915f925b82841061074457505050820101816106f26106e0565b8054848a01860152889550879490930192810161072e565b60ff19168682015292151560051b850190920192508391506106f290506106e0565b82346101c0575f3660031901126101c05760075490516001600160a01b039091168152602090f35b346101c0575f3660031901126101c0576107be611276565b600780546001600160a01b031981169091555f906001600160a01b03167f8be0079c531659141344cd1fd0a4f28419497f9722a3daafe3b4186f6b6457e08280a3005b5090346101c05760203660031901126101c0576001600160a01b03610824610d79565b16801561084057602092505f5260038252805f20549051908152f35b815162461bcd60e51b8152602081850152602960248201527f4552433732313a2061646472657373207a65726f206973206e6f7420612076616044820152683634b21037bbb732b960b91b6064820152608490fd5b5090346101c05760203660031901126101c0576108b460209235611081565b90516001600160a01b039091168152f35b50346101c0576020806003193601126101c05767ffffffffffffffff9082358281116101c0576108f89036908501610e7e565b92610901611276565b835192831161044a5750610916600954610e9c565b601f81116109d9575b50602090601f831160011461095b575081925f92610950575b50505f19600383901b1c191660019190911b17600955005b015190508280610938565b90601f1983169360095f527f6e1540171b6c0c960b71a7020d9f60077f6af931a8bbf590da0223dacf75c7af925f905b8682106109c157505083600195106109a9575b505050811b01600955005b01515f1960f88460031b161c1916905582808061099e565b8060018596829496860151815501950193019061098b565b60095f527f6e1540171b6c0c960b71a7020d9f60077f6af931a8bbf590da0223dacf75c7af601f840160051c81019160208510610a32575b601f0160051c01905b818110610a27575061091f565b5f8155600101610a1a565b9091508190610a11565b82346101c0575f3660031901126101c0576020906008549051908152f35b82346101c0576103246105b291610a7036610da5565b91925192610a7d84610dda565b5f84526105a261059d84336110a3565b346101c0576105b2610a9e36610da5565b91610aac61059d84336110a3565b611167565b50346101c057816003193601126101c057610aca610d79565b6024359290916001600160a01b0391908280610ae587611081565b16941693808514610bd257803314908115610bb3575b5015610b4b57845f526020525f20826001600160601b0360a01b825416179055610b2483611081565b167f8c5be1e5ebec7d5bd14f71427d1e84f3dd0314c0f7b2291e5b200ac8c7c3b9255f80a4005b6020608492519162461bcd60e51b8352820152603d60248201527f4552433732313a20617070726f76652063616c6c6572206973206e6f7420746f60448201527f6b656e206f776e6572206f7220617070726f76656420666f7220616c6c0000006064820152fd5b90505f526005602052815f20335f5260205260ff825f2054165f610afb565b506020608492519162461bcd60e51b8352820152602160248201527f4552433732313a20617070726f76616c20746f2063757272656e74206f776e656044820152603960f91b6064820152fd5b5090346101c05760203660031901126101c0576108b460209235610f97565b82346101c0575f3660031901126101c0578051905f90825f5492610c6184610e9c565b808352602094600190866001821691825f1461075c575050600114610c9257505061052d92916106f2910385610e0a565b5f80805286935091907f290decd9548b62a8d60345a988386fc84ba6bc95484008f6362f93160ef3e5635b828410610cd357505050820101816106f26106e0565b8054848a018601528895508794909301928101610cbd565b82346101c05760203660031901126101c057359063ffffffff60e01b82168092036101c0576020916380ac58cd60e01b8114908115610d44575b8115610d33575b5015158152f35b6301ffc9a760e01b14905083610d2c565b635b5e139f60e01b81149150610d25565b805180835260209291819084018484015e5f828201840152601f01601f1916010190565b600435906001600160a01b03821682036101c057565b602435906001600160a01b03821682036101c057565b60609060031901126101c0576001600160a01b039060043582811681036101c0579160243590811681036101c0579060443590565b6020810190811067ffffffffffffffff821117610df657604052565b634e487b7160e01b5f52604160045260245ffd5b90601f8019910116810190811067ffffffffffffffff821117610df657604052565b67ffffffffffffffff8111610df657601f01601f191660200190565b929192610e5482610e2c565b91610e626040519384610e0a565b8294818452818301116101c0578281602093845f960137010152565b9080601f830112156101c057816020610e9993359101610e48565b90565b90600182811c92168015610eca575b6020831014610eb657565b634e487b7160e01b5f52602260045260245ffd5b91607f1691610eab565b604051905f8260095491610ee783610e9c565b80835292602090600190818116908115610f735750600114610f14575b5050610f1292500383610e0a565b565b91509260095f527f6e1540171b6c0c960b71a7020d9f60077f6af931a8bbf590da0223dacf75c7af935f925b828410610f5b5750610f129450505081016020015f80610f04565b85548885018301529485019487945092810192610f40565b91505060209250610f1294915060ff191682840152151560051b8201015f80610f04565b5f81815260026020526040902054610fb9906001600160a01b03161515611035565b5f908152600460205260409020546001600160a01b031690565b15610fda57565b60405162461bcd60e51b815260206004820152602d60248201527f4552433732313a2063616c6c6572206973206e6f7420746f6b656e206f776e6560448201526c1c881bdc88185c1c1c9bdd9959609a1b6064820152608490fd5b1561103c57565b60405162461bcd60e51b815260206004820152601860248201527f4552433732313a20696e76616c696420746f6b656e20494400000000000000006044820152606490fd5b5f908152600260205260409020546001600160a01b0316610e99811515611035565b906001600160a01b0380806110b784611081565b169316918383149384156110ea575b5083156110d4575b50505090565b6110e091929350610f97565b16145f80806110ce565b9093505f52600560205260405f20825f5260205260ff60405f205416925f6110c6565b1561111457565b60405162461bcd60e51b815260206004820152602560248201527f4552433732313a207472616e736665722066726f6d20696e636f72726563742060448201526437bbb732b960d91b6064820152608490fd5b9061118f9161117584611081565b6001600160a01b039391841692849290918316841461110d565b1691821561122557816111ac916111a586611081565b161461110d565b825f52600460205260405f206001600160601b0360a01b90818154169055815f52600360205260405f205f198154019055825f5260405f2060018154019055835f5260026020528260405f20918254161790557fddf252ad1be2c89b69c2b068fc378daa952ba7f163c4a11628f55a4df523b3ef5f80a4565b60405162461bcd60e51b8152602060048201526024808201527f4552433732313a207472616e7366657220746f20746865207a65726f206164646044820152637265737360e01b6064820152608490fd5b6007546001600160a01b0316330361128a57565b606460405162461bcd60e51b815260206004820152602060248201527f4f776e61626c653a2063616c6c6572206973206e6f7420746865206f776e65726044820152fd5b60809060208152603260208201527f4552433732313a207472616e7366657220746f206e6f6e20455243373231526560408201527131b2b4bb32b91034b6b83632b6b2b73a32b960711b60608201520190565b1561132857565b60405162461bcd60e51b815280611341600482016112ce565b0390fd5b5f81815260026020526040902054611367906001600160a01b03161515611035565b805f52602090600682526040805f209181515f938054948261138887610e9c565b91828252888201936001988a6001821691825f146116345750506001146115f6575b506113b792500383610e0a565b6113bf610ed4565b91825180156115eb57908793929181516115b5575050505f838152600260205260409020546113fb92506001600160a01b031615159050611035565b611403610ed4565b8051909290156115a0578492915f91817a184f03e93ff9f4daa797ed6e38ed64bf6a1f0100000000000000008181811015611591575b5050856d04ee2d6d415b85acef810000000080831015611585575b5050662386f26fc1000080821015611578575b506305f5e1008082101561156b575b506127108082101561155e575b506064811015611550575b600a80911015611546575b60018497939701928060216114c56114b087610e2c565b966114bd87519889610e0a565b808852610e2c565b868a019790601f1901368937860101905b611511575b505050610e999550519583879451918291018686015e830190848201905f8252519283915e015f83820152038084520182610e0a565b5f19019782906f181899199a1a9b1b9c1cb0b131b232b360811b8282061a8a5304908115611541579097816114d6565b6114db565b9260010192611499565b60646002910493019261148e565b600491049301925f611483565b600891049301925f611476565b601091049301925f611467565b9401939004855f611454565b92945084920490505f80611439565b9350505050516115af81610dda565b5f815290565b919395610e999750829193955051978895018686015e830190848201905f8252519283915e015f83820152038084520182610e0a565b509550505050505090565b9150505f528287805f20885f915b85831061161b5750506113b793508201015f6113aa565b8091929450548385890101520191018890888693611604565b60ff191687526113b795151560051b85010192505f91506113aa9050565b919291803b156117575761169b936040518092630a85bd0160e11b948583523360048401525f6024840152604483015260806064830152815f816020998a966084830190610d55565b03926001600160a01b03165af15f9181611717575b5061170857833d15611701573d6116c681610e2c565b906116d46040519283610e0a565b81523d5f8383013e5b805191826116fe5760405162461bcd60e51b815280611341600482016112ce565b01fd5b60606116dd565b6001600160e01b031916149150565b9091508481813d8311611750575b61172f8183610e0a565b810103126101c057516001600160e01b0319811681036101c057905f6116b0565b503d611725565b506001925050565b9293929190803b156117da57935f916117b89560018060a01b039160405194838694928593630a85bd0160e11b998a86523360048701521660248501526044840152608060648401528260209a8b976084830190610d55565b0393165af15f9181611717575061170857833d15611701573d6116c681610e2c565b50600193505050565b156117ea57565b60405162461bcd60e51b815260206004820152601c60248201527f4552433732313a20746f6b656e20616c7265616479206d696e746564000000006044820152606490fdfea264697066735822122034f99fa11c0897d9e2599b272dcdd8794b60520b6f1e80a6ff88a13d9a8f46dd64736f6c63430008190033",
  "devdoc": {
    "events": {
      "Approval(address,address,uint256)": {
        "details": "Emitted when `owner` enables `approved` to manage the `tokenId` token."
      },
      "ApprovalForAll(address,address,bool)": {
        "details": "Emitted when `owner` enables or disables (`approved`) `operator` to manage all of its assets."
      },
      "Transfer(address,address,uint256)": {
        "details": "Emitted when `tokenId` token is transferred from `from` to `to`."
      }
    },
    "kind": "dev",
    "methods": {
      "approve(address,uint256)": {
        "details": "See {IERC721-approve}."
      },
      "balanceOf(address)": {
        "details": "See {IERC721-balanceOf}."
      },
      "getApproved(uint256)": {
        "details": "See {IERC721-getApproved}."
      },
      "isApprovedForAll(address,address)": {
        "details": "See {IERC721-isApprovedForAll}."
      },
      "name()": {
        "details": "See {IERC721Metadata-name}."
      },
      "owner()": {
        "details": "Returns the address of the current owner."
      },
      "ownerOf(uint256)": {
        "details": "See {IERC721-ownerOf}."
      },
      "renounceOwnership()": {
        "details": "Leaves the contract without owner. It will not be possible to call `onlyOwner` functions anymore. Can only be called by the current owner. NOTE: Renouncing ownership will leave the contract without an owner, thereby removing any functionality that is only available to the owner."
      },
      "safeTransferFrom(address,address,uint256)": {
        "details": "See {IERC721-safeTransferFrom}."
      },
      "safeTransferFrom(address,address,uint256,bytes)": {
        "details": "See {IERC721-safeTransferFrom}."
      },
      "setApprovalForAll(address,bool)": {
        "details": "See {IERC721-setApprovalForAll}."
      },
      "supportsInterface(bytes4)": {
        "details": "See {IERC165-supportsInterface}."
      },
      "symbol()": {
        "details": "See {IERC721Metadata-symbol}."
      },
      "transferFrom(address,address,uint256)": {
        "details": "See {IERC721-transferFrom}."
      },
      "transferOwnership(address)": {
        "details": "Transfers ownership of the contract to a new account (`newOwner`). Can only be called by the current owner."
      }
    },
    "version": 1
  },
  "userdoc": {
    "kind": "user",
    "methods": {},
    "version": 1
  },
  "storageLayout": {
    "storage": [
      {
        "astId": 1145,
        "contract": "src/StoreFrontNFTReceipt.sol:StoreFrontNFTReceipt",
        "label": "_name",
        "offset": 0,
        "slot": "0",
        "type": "t_string_storage"
      },
      {
        "astId": 1147,
        "contract": "src/StoreFrontNFTReceipt.sol:StoreFrontNFTReceipt",
        "label": "_symbol",
        "offset": 0,
        "slot": "1",
        "type": "t_string_storage"
      },
      {
        "astId": 1151,
        "contract": "src/StoreFrontNFTReceipt.sol:StoreFrontNFTReceipt",
        "label": "_owners",
        "offset": 0,
        "slot": "2",
        "type": "t_mapping(t_uint256,t_address)"
      },
      {
        "astId": 1155,
        "contract": "src/StoreFrontNFTReceipt.sol:StoreFrontNFTReceipt",
        "label": "_balances",
        "offset": 0,
        "slot": "3",
        "type": "t_mapping(t_address,t_uint256)"
      },
      {
        "astId": 1159,
        "contract": "src/StoreFrontNFTReceipt.sol:StoreFrontNFTReceipt",
        "label": "_tokenApprovals",
        "offset": 0,
        "slot": "4",
        "type": "t_mapping(t_uint256,t_address)"
      },
      {
        "astId": 1165,
        "contract": "src/StoreFrontNFTReceipt.sol:StoreFrontNFTReceipt",
        "label": "_operatorApprovals",
        "offset": 0,
        "slot": "5",
        "type": "t_mapping(t_address,t_mapping(t_address,t_bool))"
      },
      {
        "astId": 2193,
        "contract": "src/StoreFrontNFTReceipt.sol:StoreFrontNFTReceipt",
        "label": "_tokenURIs",
        "offset": 0,
        "slot": "6",
        "type": "t_mapping(t_uint256,t_string_storage)"
      },
      {
        "astId": 7,
        "contract": "src/StoreFrontNFTReceipt.sol:StoreFrontNFTReceipt",
        "label": "_owner",
        "offset": 0,
        "slot": "7",
        "type": "t_address"
      },
      {
        "astId": 13919,
        "contract": "src/StoreFrontNFTReceipt.sol:StoreFrontNFTReceipt",
        "label": "_tokenIdCounter",
        "offset": 0,
        "slot": "8",
        "type": "t_struct(Counter)2690_storage"
      },
      {
        "astId": 13922,
        "contract": "src/StoreFrontNFTReceipt.sol:StoreFrontNFTReceipt",
        "label": "baseUri",
        "offset": 0,
        "slot": "9",
        "type": "t_string_storage"
      }
    ],
    "types": {
      "t_address": {
        "encoding": "inplace",
        "label": "address",
        "numberOfBytes": "20"
      },
      "t_bool": {
        "encoding": "inplace",
        "label": "bool",
        "numberOfBytes": "1"
      },
      "t_mapping(t_address,t_bool)": {
        "encoding": "mapping",
        "key": "t_address",
        "label": "mapping(address => bool)",
        "numberOfBytes": "32",
        "value": "t_bool"
      },
      "t_mapping(t_address,t_mapping(t_address,t_bool))": {
        "encoding": "mapping",
        "key": "t_address",
        "label": "mapping(address => mapping(address => bool))",
        "numberOfBytes": "32",
        "value": "t_mapping(t_address,t_bool)"
      },
      "t_mapping(t_address,t_uint256)": {
        "encoding": "mapping",
        "key": "t_address",
        "label": "mapping(address => uint256)",
        "numberOfBytes": "32",
        "value": "t_uint256"
      },
      "t_mapping(t_uint256,t_address)": {
        "encoding": "mapping",
        "key": "t_uint256",
        "label": "mapping(uint256 => address)",
        "numberOfBytes": "32",
        "value": "t_address"
      },
      "t_mapping(t_uint256,t_string_storage)": {
        "encoding": "mapping",
        "key": "t_uint256",
        "label": "mapping(uint256 => string)",
        "numberOfBytes": "32",
        "value": "t_string_storage"
      },
      "t_string_storage": {
        "encoding": "bytes",
        "label": "string",
        "numberOfBytes": "32"
      },
      "t_struct(Counter)2690_storage": {
        "encoding": "inplace",
        "label": "struct Counters.Counter",
        "members": [
          {
            "astId": 2689,
            "contract": "src/StoreFrontNFTReceipt.sol:StoreFrontNFTReceipt",
            "label": "_value",
            "offset": 0,
            "slot": "0",
            "type": "t_uint256"
          }
        ],
        "numberOfBytes": "32"
      },
      "t_uint256": {
        "encoding": "inplace",
        "label": "uint256",
        "numberOfBytes": "32"
      }
    }
  }
}