{
  "address": "0x3537BC4C1890e528e484DD8DE335C17E9195F1d7",
  "abi": [
    {
      "inputs": [
        {
          "internalType": "string",
          "name": "name",
          "type": "string"
        },
        {
          "internalType": "string",
          "name": "symbol",
          "type": "string"
        },
        {
          "internalType": "uint8",
          "name": "_decimals",
          "type": "uint8"
        }
      ],
      "stateMutability": "nonpayable",
      "type": "constructor"
    },
    {
      "anonymous": false,
      "inputs": [
        {
          "indexed": true,
          "internalType": "address",
          "name": "owner",
          "type": "address"
        },
        {
          "indexed": true,
          "internalType": "address",
          "name": "spender",
          "type": "address"
        },
        {
          "indexed": false,
          "internalType": "uint256",
          "name": "value",
          "type": "uint256"
        }
      ],
      "name": "Approval",
      "type": "event"
    },
    {
      "anonymous": false,
      "inputs": [
        {
          "indexed": true,
          "internalType": "address",
          "name": "from",
          "type": "address"
        },
        {
          "indexed": true,
          "internalType": "address",
          "name": "to",
          "type": "address"
        },
        {
          "indexed": false,
          "internalType": "uint256",
          "name": "value",
          "type": "uint256"
        }
      ],
      "name": "Transfer",
      "type": "event"
    },
    {
      "inputs": [
        {
          "internalType": "address",
          "name": "owner",
          "type": "address"
        },
        {
          "internalType": "address",
          "name": "spender",
          "type": "address"
        }
      ],
      "name": "allowance",
      "outputs": [
        {
          "internalType": "uint256",
          "name": "",
          "type": "uint256"
        }
      ],
      "stateMutability": "view",
      "type": "function"
    },
    {
      "inputs": [
        {
          "internalType": "address",
          "name": "spender",
          "type": "address"
        },
        {
          "internalType": "uint256",
          "name": "amount",
          "type": "uint256"
        }
      ],
      "name": "approve",
      "outputs": [
        {
          "internalType": "bool",
          "name": "",
          "type": "bool"
        }
      ],
      "stateMutability": "nonpayable",
      "type": "function"
    },
    {
      "inputs": [
        {
          "internalType": "address",
          "name": "account",
          "type": "address"
        }
      ],
      "name": "balanceOf",
      "outputs": [
        {
          "internalType": "uint256",
          "name": "",
          "type": "uint256"
        }
      ],
      "stateMutability": "view",
      "type": "function"
    },
    {
      "inputs": [],
      "name": "decimals",
      "outputs": [
        {
          "internalType": "uint8",
          "name": "",
          "type": "uint8"
        }
      ],
      "stateMutability": "view",
      "type": "function"
    },
    {
      "inputs": [
        {
          "internalType": "address",
          "name": "spender",
          "type": "address"
        },
        {
          "internalType": "uint256",
          "name": "subtractedValue",
          "type": "uint256"
        }
      ],
      "name": "decreaseAllowance",
      "outputs": [
        {
          "internalType": "bool",
          "name": "",
          "type": "bool"
        }
      ],
      "stateMutability": "nonpayable",
      "type": "function"
    },
    {
      "inputs": [
        {
          "internalType": "uint256",
          "name": "amount",
          "type": "uint256"
        }
      ],
      "name": "giveMe",
      "outputs": [],
      "stateMutability": "nonpayable",
      "type": "function"
    },
    {
      "inputs": [
        {
          "internalType": "address",
          "name": "spender",
          "type": "address"
        },
        {
          "internalType": "uint256",
          "name": "addedValue",
          "type": "uint256"
        }
      ],
      "name": "increaseAllowance",
      "outputs": [
        {
          "internalType": "bool",
          "name": "",
          "type": "bool"
        }
      ],
      "stateMutability": "nonpayable",
      "type": "function"
    },
    {
      "inputs": [],
      "name": "name",
      "outputs": [
        {
          "internalType": "string",
          "name": "",
          "type": "string"
        }
      ],
      "stateMutability": "view",
      "type": "function"
    },
    {
      "inputs": [],
      "name": "symbol",
      "outputs": [
        {
          "internalType": "string",
          "name": "",
          "type": "string"
        }
      ],
      "stateMutability": "view",
      "type": "function"
    },
    {
      "inputs": [],
      "name": "totalSupply",
      "outputs": [
        {
          "internalType": "uint256",
          "name": "",
          "type": "uint256"
        }
      ],
      "stateMutability": "view",
      "type": "function"
    },
    {
      "inputs": [
        {
          "internalType": "address",
          "name": "to",
          "type": "address"
        },
        {
          "internalType": "uint256",
          "name": "amount",
          "type": "uint256"
        }
      ],
      "name": "transfer",
      "outputs": [
        {
          "internalType": "bool",
          "name": "",
          "type": "bool"
        }
      ],
      "stateMutability": "nonpayable",
      "type": "function"
    },
    {
      "inputs": [
        {
          "internalType": "address",
          "name": "from",
          "type": "address"
        },
        {
          "internalType": "address",
          "name": "to",
          "type": "address"
        },
        {
          "internalType": "uint256",
          "name": "amount",
          "type": "uint256"
        }
      ],
      "name": "transferFrom",
      "outputs": [
        {
          "internalType": "bool",
          "name": "",
          "type": "bool"
        }
      ],
      "stateMutability": "nonpayable",
      "type": "function"
    }
  ],
  "transactionHash": "0x004e401936bf6143bcbfb94c904ad27f2a9ee71b093578fa37a1f6e9f46fc782",
  "args": [
    "USDC",
    "USDC",
    6
  ],
  "numDeployments": 2,
  "solcInputHash": "060045cb97dca116ba550a742a6013c0",
  "bytecode": "0x6040608081523461054757610f18908138038061001b8161054b565b93843982016060838203126105475782516001600160401b03908181116105475782610048918601610570565b9160209081860151838111610547578591610064918801610570565b9501519260ff84168094036105475780519280841161045e5760038054946001938487811c9716801561053d575b86881014610529578190601f978881116104db575b50869088831160011461047d575f92610472575b50505f1982841b1c191690841b1781555b875191821161045e5760049788548481811c91168015610454575b86821014610441578681116103fe575b50849086841160011461039c579383949184925f95610391575b50501b925f19911b1c19161785555b6101356005938060ff198654161785556105c1565b916305f5e100928084029384040361031657331561034f575060028054838101809111610303578155335f525f8252845f2083815401905584519283527fddf252ad1be2c89b69c2b068fc378daa952ba7f163c4a11628f55a4df523b3ef925f84843393a36101a760ff8554166105c1565b9361271094808602908682040361033c5782548181018091116103295783555f858573a55980ab0c3aefb871af97462cdbbecb41aeed09938484528382528a84208181540190558a51908152a361020160ff8254166105c1565b808602908682040361033c5782548181018091116103295783555f858573f39fd6e51aad88f6f4ce6ab8827279cfffb92266938484528382528a84208181540190558a51908152a361025660ff8254166105c1565b808602908682040361033c578254818101809111610329579160ff916102ad9385555f87877370997970c51812dc3a010c7d01b50e0d17dc79c8938484528382528c84208181540190558c51908152a354166105c1565b8085029485040361031657805490848201809211610303575f9495965055733c44cdddb6a900fa2b585dd299e03d12fa4293bc938484528382528584208181540190558551908152a35161093190816105e78239f35b601187634e487b7160e01b5f525260245ffd5b601186634e487b7160e01b5f525260245ffd5b601189634e487b7160e01b5f525260245ffd5b601188634e487b7160e01b5f525260245ffd5b845162461bcd60e51b81528087019290925260248201527f45524332303a206d696e7420746f20746865207a65726f2061646472657373006044820152606490fd5b015193505f80610111565b9190601f198416928a5f5284875f20945f5b89898383106103e757505050106103ce575b50505050811b018555610120565b01519060f8845f19921b161c191690555f8080806103c0565b8686015189559097019694850194889350016103ae565b895f52855f208780860160051c820192888710610438575b0160051c019085905b82811061042d5750506100f7565b5f815501859061041f565b92508192610416565b60228a634e487b7160e01b5f525260245ffd5b90607f16906100e7565b634e487b7160e01b5f52604160045260245ffd5b015190505f806100bb565b90869350601f19831691855f52885f20925f5b8a8282106104c557505084116104ae575b505050811b0181556100cc565b01515f1983861b60f8161c191690555f80806104a1565b8385015186558a97909501949384019301610490565b909150835f52865f208880850160051c820192898610610520575b918891869594930160051c01915b8281106105125750506100a7565b5f8155859450889101610504565b925081926104f6565b634e487b7160e01b5f52602260045260245ffd5b96607f1696610092565b5f80fd5b6040519190601f01601f191682016001600160401b0381118382101761045e57604052565b81601f82011215610547578051906001600160401b03821161045e5761059f601f8301601f191660200161054b565b928284526020838301011161054757815f9260208093018386015e8301015290565b60ff16604d81116105d257600a0a90565b634e487b7160e01b5f52601160045260245ffdfe6080604090808252600480361015610015575f80fd5b5f3560e01c91826306fdde031461054157508163095ea7b31461051857816318160ddd146104fa57816323b872dd14610431578163313ce5671461041057816339509351146103c457816344dee17f1461031a57816370a08231146102e457816395d89b41146101c5578163a457c2d71461012057508063a9059cbb146100f05763dd62ed3e146100a4575f80fd5b346100ec57806003193601126100ec576020906100bf610643565b6100c7610659565b9060018060a01b038091165f5260018452825f2091165f528252805f20549051908152f35b5f80fd5b50346100ec57806003193601126100ec5760209061011961010f610643565b602435903361078e565b5160018152f35b9050346100ec57816003193601126100ec5761013a610643565b9060243590335f526001602052835f2060018060a01b0384165f52602052835f205490828210610174576020856101198585038733610690565b608490602086519162461bcd60e51b8352820152602560248201527f45524332303a2064656372656173656420616c6c6f77616e63652062656c6f77604482015264207a65726f60d81b6064820152fd5b82346100ec575f3660031901126100ec578051905f835460018160011c90600183169283156102da575b60209384841081146102c7578388529081156102ab5750600114610257575b505050829003601f01601f191682019267ffffffffffffffff8411838510176102445750829182610240925282610619565b0390f35b604190634e487b7160e01b5f525260245ffd5b5f878152929350837f8a35acfbc15ff81a39ae7d344fd709f28e8600b4aa8c65c6b64bfe7fe36bd19b5b838510610297575050505083010184808061020e565b805488860183015293019284908201610281565b60ff1916878501525050151560051b840101905084808061020e565b602289634e487b7160e01b5f525260245ffd5b91607f16916101ef565b82346100ec5760203660031901126100ec576020906001600160a01b03610309610643565b165f525f8252805f20549051908152f35b82346100ec5760203660031901126100ec57813591331561038257506103428260025461066f565b600255335f525f602052805f20828154019055519081525f7fddf252ad1be2c89b69c2b068fc378daa952ba7f163c4a11628f55a4df523b3ef60203393a3005b6020606492519162461bcd60e51b8352820152601f60248201527f45524332303a206d696e7420746f20746865207a65726f2061646472657373006044820152fd5b82346100ec57806003193601126100ec576020906101196103e3610643565b335f5260018452825f2060018060a01b0382165f528452610409602435845f205461066f565b9033610690565b82346100ec575f3660031901126100ec5760209060ff600554169051908152f35b9050346100ec5760603660031901126100ec5761044c610643565b610454610659565b906044359260018060a01b0382165f526001602052845f20335f52602052845f2054905f19820361048e575b60208661011987878761078e565b8482106104b757509183916104ac6020969561011995033383610690565b919394819350610480565b606490602087519162461bcd60e51b8352820152601d60248201527f45524332303a20696e73756666696369656e7420616c6c6f77616e63650000006044820152fd5b82346100ec575f3660031901126100ec576020906002549051908152f35b82346100ec57806003193601126100ec57602090610119610537610643565b6024359033610690565b83346100ec575f3660031901126100ec575f60035460018160011c906001831692831561060f575b60209384841081146102c7578388529081156102ab57506001146105b957505050829003601f01601f191682019267ffffffffffffffff8411838510176102445750829182610240925282610619565b60035f908152929350837fc2575a0e9e593c00f959f8c92f12db2869c3395a3b0502d05e2516446f71f85b5b8385106105fb575050505083010184808061020e565b8054888601830152930192849082016105e5565b91607f1691610569565b602060409281835280519182918282860152018484015e5f828201840152601f01601f1916010190565b600435906001600160a01b03821682036100ec57565b602435906001600160a01b03821682036100ec57565b9190820180921161067c57565b634e487b7160e01b5f52601160045260245ffd5b6001600160a01b0390811691821561073d57169182156106ed5760207f8c5be1e5ebec7d5bd14f71427d1e84f3dd0314c0f7b2291e5b200ac8c7c3b92591835f526001825260405f20855f5282528060405f2055604051908152a3565b60405162461bcd60e51b815260206004820152602260248201527f45524332303a20617070726f766520746f20746865207a65726f206164647265604482015261737360f01b6064820152608490fd5b60405162461bcd60e51b8152602060048201526024808201527f45524332303a20617070726f76652066726f6d20746865207a65726f206164646044820152637265737360e01b6064820152608490fd5b6001600160a01b039081169182156108a8571691821561085757815f525f60205260405f205481811061080357817fddf252ad1be2c89b69c2b068fc378daa952ba7f163c4a11628f55a4df523b3ef92602092855f525f84520360405f2055845f5260405f20818154019055604051908152a3565b60405162461bcd60e51b815260206004820152602660248201527f45524332303a207472616e7366657220616d6f756e7420657863656564732062604482015265616c616e636560d01b6064820152608490fd5b60405162461bcd60e51b815260206004820152602360248201527f45524332303a207472616e7366657220746f20746865207a65726f206164647260448201526265737360e81b6064820152608490fd5b60405162461bcd60e51b815260206004820152602560248201527f45524332303a207472616e736665722066726f6d20746865207a65726f206164604482015264647265737360d81b6064820152608490fdfea2646970667358221220f53b782747fce9833825fd2d78568df696e847a2bc3d410f575484c24069872464736f6c63430008190033",
  "devdoc": {
    "events": {
      "Approval(address,address,uint256)": {
        "details": "Emitted when the allowance of a `spender` for an `owner` is set by a call to {approve}. `value` is the new allowance."
      },
      "Transfer(address,address,uint256)": {
        "details": "Emitted when `value` tokens are moved from one account (`from`) to another (`to`). Note that `value` may be zero."
      }
    },
    "kind": "dev",
    "methods": {
      "allowance(address,address)": {
        "details": "See {IERC20-allowance}."
      },
      "approve(address,uint256)": {
        "details": "See {IERC20-approve}. NOTE: If `amount` is the maximum `uint256`, the allowance is not updated on `transferFrom`. This is semantically equivalent to an infinite approval. Requirements: - `spender` cannot be the zero address."
      },
      "balanceOf(address)": {
        "details": "See {IERC20-balanceOf}."
      },
      "decimals()": {
        "details": "Returns the number of decimals used to get its user representation. For example, if `decimals` equals `2`, a balance of `505` tokens should be displayed to a user as `5.05` (`505 / 10 ** 2`). Tokens usually opt for a value of 18, imitating the relationship between Ether and Wei. This is the value {ERC20} uses, unless this function is overridden; NOTE: This information is only used for _display_ purposes: it in no way affects any of the arithmetic of the contract, including {IERC20-balanceOf} and {IERC20-transfer}."
      },
      "decreaseAllowance(address,uint256)": {
        "details": "Atomically decreases the allowance granted to `spender` by the caller. This is an alternative to {approve} that can be used as a mitigation for problems described in {IERC20-approve}. Emits an {Approval} event indicating the updated allowance. Requirements: - `spender` cannot be the zero address. - `spender` must have allowance for the caller of at least `subtractedValue`."
      },
      "increaseAllowance(address,uint256)": {
        "details": "Atomically increases the allowance granted to `spender` by the caller. This is an alternative to {approve} that can be used as a mitigation for problems described in {IERC20-approve}. Emits an {Approval} event indicating the updated allowance. Requirements: - `spender` cannot be the zero address."
      },
      "name()": {
        "details": "Returns the name of the token."
      },
      "symbol()": {
        "details": "Returns the symbol of the token, usually a shorter version of the name."
      },
      "totalSupply()": {
        "details": "See {IERC20-totalSupply}."
      },
      "transfer(address,uint256)": {
        "details": "See {IERC20-transfer}. Requirements: - `to` cannot be the zero address. - the caller must have a balance of at least `amount`."
      },
      "transferFrom(address,address,uint256)": {
        "details": "See {IERC20-transferFrom}. Emits an {Approval} event indicating the updated allowance. This is not required by the EIP. See the note at the beginning of {ERC20}. NOTE: Does not update the allowance if the current allowance is the maximum `uint256`. Requirements: - `from` and `to` cannot be the zero address. - `from` must have a balance of at least `amount`. - the caller must have allowance for ``from``'s tokens of at least `amount`."
      }
    },
    "version": 1
  },
  "userdoc": {
    "kind": "user",
    "methods": {},
    "version": 1
  },
  "storageLayout": {
    "storage": [
      {
        "astId": 128,
        "contract": "src/TestToken.sol:TestToken",
        "label": "_balances",
        "offset": 0,
        "slot": "0",
        "type": "t_mapping(t_address,t_uint256)"
      },
      {
        "astId": 134,
        "contract": "src/TestToken.sol:TestToken",
        "label": "_allowances",
        "offset": 0,
        "slot": "1",
        "type": "t_mapping(t_address,t_mapping(t_address,t_uint256))"
      },
      {
        "astId": 136,
        "contract": "src/TestToken.sol:TestToken",
        "label": "_totalSupply",
        "offset": 0,
        "slot": "2",
        "type": "t_uint256"
      },
      {
        "astId": 138,
        "contract": "src/TestToken.sol:TestToken",
        "label": "_name",
        "offset": 0,
        "slot": "3",
        "type": "t_string_storage"
      },
      {
        "astId": 140,
        "contract": "src/TestToken.sol:TestToken",
        "label": "_symbol",
        "offset": 0,
        "slot": "4",
        "type": "t_string_storage"
      },
      {
        "astId": 14106,
        "contract": "src/TestToken.sol:TestToken",
        "label": "decimalPlaces",
        "offset": 0,
        "slot": "5",
        "type": "t_uint8"
      }
    ],
    "types": {
      "t_address": {
        "encoding": "inplace",
        "label": "address",
        "numberOfBytes": "20"
      },
      "t_mapping(t_address,t_mapping(t_address,t_uint256))": {
        "encoding": "mapping",
        "key": "t_address",
        "label": "mapping(address => mapping(address => uint256))",
        "numberOfBytes": "32",
        "value": "t_mapping(t_address,t_uint256)"
      },
      "t_mapping(t_address,t_uint256)": {
        "encoding": "mapping",
        "key": "t_address",
        "label": "mapping(address => uint256)",
        "numberOfBytes": "32",
        "value": "t_uint256"
      },
      "t_string_storage": {
        "encoding": "bytes",
        "label": "string",
        "numberOfBytes": "32"
      },
      "t_uint256": {
        "encoding": "inplace",
        "label": "uint256",
        "numberOfBytes": "32"
      },
      "t_uint8": {
        "encoding": "inplace",
        "label": "uint8",
        "numberOfBytes": "1"
      }
    }
  }
}