{
  "address": "0x17574e77619C9c7F38d4244f7E4e16f47d7f7032",
  "abi": [
    {
      "inputs": [
        {
          "internalType": "string",
          "name": "name",
          "type": "string"
        },
        {
          "internalType": "string",
          "name": "symbol",
          "type": "string"
        },
        {
          "internalType": "uint8",
          "name": "_decimals",
          "type": "uint8"
        }
      ],
      "stateMutability": "nonpayable",
      "type": "constructor"
    },
    {
      "anonymous": false,
      "inputs": [
        {
          "indexed": true,
          "internalType": "address",
          "name": "owner",
          "type": "address"
        },
        {
          "indexed": true,
          "internalType": "address",
          "name": "spender",
          "type": "address"
        },
        {
          "indexed": false,
          "internalType": "uint256",
          "name": "value",
          "type": "uint256"
        }
      ],
      "name": "Approval",
      "type": "event"
    },
    {
      "anonymous": false,
      "inputs": [
        {
          "indexed": true,
          "internalType": "address",
          "name": "from",
          "type": "address"
        },
        {
          "indexed": true,
          "internalType": "address",
          "name": "to",
          "type": "address"
        },
        {
          "indexed": false,
          "internalType": "uint256",
          "name": "value",
          "type": "uint256"
        }
      ],
      "name": "Transfer",
      "type": "event"
    },
    {
      "inputs": [
        {
          "internalType": "address",
          "name": "owner",
          "type": "address"
        },
        {
          "internalType": "address",
          "name": "spender",
          "type": "address"
        }
      ],
      "name": "allowance",
      "outputs": [
        {
          "internalType": "uint256",
          "name": "",
          "type": "uint256"
        }
      ],
      "stateMutability": "view",
      "type": "function"
    },
    {
      "inputs": [
        {
          "internalType": "address",
          "name": "spender",
          "type": "address"
        },
        {
          "internalType": "uint256",
          "name": "amount",
          "type": "uint256"
        }
      ],
      "name": "approve",
      "outputs": [
        {
          "internalType": "bool",
          "name": "",
          "type": "bool"
        }
      ],
      "stateMutability": "nonpayable",
      "type": "function"
    },
    {
      "inputs": [
        {
          "internalType": "address",
          "name": "account",
          "type": "address"
        }
      ],
      "name": "balanceOf",
      "outputs": [
        {
          "internalType": "uint256",
          "name": "",
          "type": "uint256"
        }
      ],
      "stateMutability": "view",
      "type": "function"
    },
    {
      "inputs": [],
      "name": "decimals",
      "outputs": [
        {
          "internalType": "uint8",
          "name": "",
          "type": "uint8"
        }
      ],
      "stateMutability": "view",
      "type": "function"
    },
    {
      "inputs": [
        {
          "internalType": "address",
          "name": "spender",
          "type": "address"
        },
        {
          "internalType": "uint256",
          "name": "subtractedValue",
          "type": "uint256"
        }
      ],
      "name": "decreaseAllowance",
      "outputs": [
        {
          "internalType": "bool",
          "name": "",
          "type": "bool"
        }
      ],
      "stateMutability": "nonpayable",
      "type": "function"
    },
    {
      "inputs": [
        {
          "internalType": "uint256",
          "name": "amount",
          "type": "uint256"
        }
      ],
      "name": "giveMe",
      "outputs": [],
      "stateMutability": "nonpayable",
      "type": "function"
    },
    {
      "inputs": [
        {
          "internalType": "address",
          "name": "spender",
          "type": "address"
        },
        {
          "internalType": "uint256",
          "name": "addedValue",
          "type": "uint256"
        }
      ],
      "name": "increaseAllowance",
      "outputs": [
        {
          "internalType": "bool",
          "name": "",
          "type": "bool"
        }
      ],
      "stateMutability": "nonpayable",
      "type": "function"
    },
    {
      "inputs": [],
      "name": "name",
      "outputs": [
        {
          "internalType": "string",
          "name": "",
          "type": "string"
        }
      ],
      "stateMutability": "view",
      "type": "function"
    },
    {
      "inputs": [],
      "name": "symbol",
      "outputs": [
        {
          "internalType": "string",
          "name": "",
          "type": "string"
        }
      ],
      "stateMutability": "view",
      "type": "function"
    },
    {
      "inputs": [],
      "name": "totalSupply",
      "outputs": [
        {
          "internalType": "uint256",
          "name": "",
          "type": "uint256"
        }
      ],
      "stateMutability": "view",
      "type": "function"
    },
    {
      "inputs": [
        {
          "internalType": "address",
          "name": "to",
          "type": "address"
        },
        {
          "internalType": "uint256",
          "name": "amount",
          "type": "uint256"
        }
      ],
      "name": "transfer",
      "outputs": [
        {
          "internalType": "bool",
          "name": "",
          "type": "bool"
        }
      ],
      "stateMutability": "nonpayable",
      "type": "function"
    },
    {
      "inputs": [
        {
          "internalType": "address",
          "name": "from",
          "type": "address"
        },
        {
          "internalType": "address",
          "name": "to",
          "type": "address"
        },
        {
          "internalType": "uint256",
          "name": "amount",
          "type": "uint256"
        }
      ],
      "name": "transferFrom",
      "outputs": [
        {
          "internalType": "bool",
          "name": "",
          "type": "bool"
        }
      ],
      "stateMutability": "nonpayable",
      "type": "function"
    }
  ],
  "transactionHash": "0x6615b7d64d2d52e33c915f61c54b3cee12386e6ed1b176d638abb839e8ca2b9c",
  "args": [
    "USD Tether",
    "USDT",
    6
  ],
  "numDeployments": 2,
  "solcInputHash": "04b607c5b174a3be44108760edebc764",
  "bytecode": "0x60406080815234620005b55762000fee90813803806200001f81620005ba565b9384398201606083820312620005b55782516001600160401b0390818111620005b5578262000050918601620005e0565b9160209081860151838111620005b55785916200006f918801620005e0565b9501519260ff8416809403620005b557805192808411620004b55760038054946001938487811c97168015620005aa575b8688101462000594578190601f978881116200053e575b508690888311600114620004d757600092620004cb575b505060001982841b1c191690841b1781555b8751918211620004b55760049788548481811c91168015620004aa575b8682101462000495578681116200044a575b508490868411600114620003df57938394918492600095620003d3575b50501b92600019911b1c19161785555b620001536005938060ff1986541617855562000652565b916305f5e100928084029384040362000352573315620003915750600280548381018091116200033d57815533600052600082528460002083815401905584519283527fddf252ad1be2c89b69c2b068fc378daa952ba7f163c4a11628f55a4df523b3ef92600084843393a3620001ce60ff85541662000652565b936127109480860290868204036200037c578254818101809111620003675783556000858573a55980ab0c3aefb871af97462cdbbecb41aeed09938484528382528a84208181540190558a51908152a36200022d60ff82541662000652565b80860290868204036200037c578254818101809111620003675783556000858573f39fd6e51aad88f6f4ce6ab8827279cfffb92266938484528382528a84208181540190558a51908152a36200028760ff82541662000652565b80860290868204036200037c57825481810180911162000367579160ff91620002e3938555600087877370997970c51812dc3a010c7d01b50e0d17dc79c8938484528382528c84208181540190558c51908152a3541662000652565b8085029485040362000352578054908482018092116200033d5760009495965055733c44cdddb6a900fa2b585dd299e03d12fa4293bc938484528382528584208181540190558551908152a35161097390816200067b8239f35b601187634e487b7160e01b6000525260246000fd5b601186634e487b7160e01b6000525260246000fd5b601189634e487b7160e01b6000525260246000fd5b601188634e487b7160e01b6000525260246000fd5b845162461bcd60e51b81528087019290925260248201527f45524332303a206d696e7420746f20746865207a65726f2061646472657373006044820152606490fd5b0151935038806200012c565b9190601f198416928a60005284876000209460005b898983831062000432575050501062000417575b50505050811b0185556200013c565b01519060f884600019921b161c191690553880808062000408565b868601518955909701969485019488935001620003f4565b89600052856000208780860160051c8201928887106200048b575b0160051c019085905b8281106200047e5750506200010f565b600081550185906200046e565b9250819262000465565b60228a634e487b7160e01b6000525260246000fd5b90607f1690620000fd565b634e487b7160e01b600052604160045260246000fd5b015190503880620000ce565b90869350601f1983169185600052886000209260005b8a8282106200052757505084116200050e575b505050811b018155620000e0565b015160001983861b60f8161c1916905538808062000500565b8385015186558a97909501949384019301620004ed565b90915083600052866000208880850160051c8201928986106200058a575b918891869594930160051c01915b8281106200057a575050620000b7565b600081558594508891016200056a565b925081926200055c565b634e487b7160e01b600052602260045260246000fd5b96607f1696620000a0565b600080fd5b6040519190601f01601f191682016001600160401b03811183821017620004b557604052565b919080601f84011215620005b55782516001600160401b038111620004b55760209062000616601f8201601f19168301620005ba565b92818452828287010111620005b55760005b8181106200063e57508260009394955001015290565b858101830151848201840152820162000628565b60ff16604d81116200066457600a0a90565b634e487b7160e01b600052601160045260246000fdfe608060408181526004918236101561001657600080fd5b600092833560e01c91826306fdde031461055857508163095ea7b31461052e57816318160ddd1461050f57816323b872dd14610445578163313ce5671461042357816339509351146103d357816344dee17f1461032257816370a08231146102eb57816395d89b41146101cc578163a457c2d71461012457508063a9059cbb146100f45763dd62ed3e146100a957600080fd5b346100f057806003193601126100f057806020926100c5610679565b6100cd610694565b6001600160a01b0391821683526001865283832091168252845220549051908152f35b5080fd5b50346100f057806003193601126100f05760209061011d610113610679565b60243590336106cd565b5160018152f35b905082346101c957826003193601126101c95761013f610679565b918360243592338152600160205281812060018060a01b03861682526020522054908282106101785760208561011d858503873361083b565b608490602086519162461bcd60e51b8352820152602560248201527f45524332303a2064656372656173656420616c6c6f77616e63652062656c6f77604482015264207a65726f60d81b6064820152fd5b80fd5b8383346100f057816003193601126100f057805190828454600181811c908083169283156102e1575b60209384841081146102ce578388529081156102b2575060011461025d575b505050829003601f01601f191682019267ffffffffffffffff84118385101761024a5750829182610246925282610630565b0390f35b634e487b7160e01b815260418552602490fd5b8787529192508591837f8a35acfbc15ff81a39ae7d344fd709f28e8600b4aa8c65c6b64bfe7fe36bd19b5b83851061029e5750505050830101858080610214565b805488860183015293019284908201610288565b60ff1916878501525050151560051b8401019050858080610214565b634e487b7160e01b895260228a52602489fd5b91607f16916101f5565b5050346100f05760203660031901126100f05760209181906001600160a01b03610313610679565b16815280845220549051908152f35b919050346103cf5760203660031901126103cf57813591331561038d575061034c826002546106aa565b6002553383528260205280832082815401905551908152817fddf252ad1be2c89b69c2b068fc378daa952ba7f163c4a11628f55a4df523b3ef60203393a380f35b6020606492519162461bcd60e51b8352820152601f60248201527f45524332303a206d696e7420746f20746865207a65726f2061646472657373006044820152fd5b8280fd5b5050346100f057806003193601126100f05761011d60209261041c6103f6610679565b338352600186528483206001600160a01b038216845286529184902054602435906106aa565b903361083b565b5050346100f057816003193601126100f05760209060ff600554169051908152f35b839150346100f05760603660031901126100f057610461610679565b610469610694565b91846044359460018060a01b0384168152600160205281812033825260205220549060001982036104a3575b60208661011d8787876106cd565b8482106104cc57509183916104c16020969561011d9503338361083b565b919394819350610495565b606490602087519162461bcd60e51b8352820152601d60248201527f45524332303a20696e73756666696369656e7420616c6c6f77616e63650000006044820152fd5b5050346100f057816003193601126100f0576020906002549051908152f35b5050346100f057806003193601126100f05760209061011d61054e610679565b602435903361083b565b849084346103cf57826003193601126103cf5782600354600181811c90808316928315610626575b60209384841081146102ce578388529081156102b257506001146105d057505050829003601f01601f191682019267ffffffffffffffff84118385101761024a5750829182610246925282610630565b600387529192508591837fc2575a0e9e593c00f959f8c92f12db2869c3395a3b0502d05e2516446f71f85b5b8385106106125750505050830101858080610214565b8054888601830152930192849082016105fc565b91607f1691610580565b6020808252825181830181905290939260005b82811061066557505060409293506000838284010152601f8019910116010190565b818101860151848201604001528501610643565b600435906001600160a01b038216820361068f57565b600080fd5b602435906001600160a01b038216820361068f57565b919082018092116106b757565b634e487b7160e01b600052601160045260246000fd5b6001600160a01b039081169182156107e857169182156107975760008281528060205260408120549180831061074357604082827fddf252ad1be2c89b69c2b068fc378daa952ba7f163c4a11628f55a4df523b3ef958760209652828652038282205586815220818154019055604051908152a3565b60405162461bcd60e51b815260206004820152602660248201527f45524332303a207472616e7366657220616d6f756e7420657863656564732062604482015265616c616e636560d01b6064820152608490fd5b60405162461bcd60e51b815260206004820152602360248201527f45524332303a207472616e7366657220746f20746865207a65726f206164647260448201526265737360e81b6064820152608490fd5b60405162461bcd60e51b815260206004820152602560248201527f45524332303a207472616e736665722066726f6d20746865207a65726f206164604482015264647265737360d81b6064820152608490fd5b6001600160a01b039081169182156108ec571691821561089c5760207f8c5be1e5ebec7d5bd14f71427d1e84f3dd0314c0f7b2291e5b200ac8c7c3b925918360005260018252604060002085600052825280604060002055604051908152a3565b60405162461bcd60e51b815260206004820152602260248201527f45524332303a20617070726f766520746f20746865207a65726f206164647265604482015261737360f01b6064820152608490fd5b60405162461bcd60e51b8152602060048201526024808201527f45524332303a20617070726f76652066726f6d20746865207a65726f206164646044820152637265737360e01b6064820152608490fdfea264697066735822122082ebd5f7e6dfd11af9f614b101aa15a570751b9060369cc50bbafa0eebe9b6df64736f6c63430008120033",
  "devdoc": {
    "events": {
      "Approval(address,address,uint256)": {
        "details": "Emitted when the allowance of a `spender` for an `owner` is set by a call to {approve}. `value` is the new allowance."
      },
      "Transfer(address,address,uint256)": {
        "details": "Emitted when `value` tokens are moved from one account (`from`) to another (`to`). Note that `value` may be zero."
      }
    },
    "kind": "dev",
    "methods": {
      "allowance(address,address)": {
        "details": "See {IERC20-allowance}."
      },
      "approve(address,uint256)": {
        "details": "See {IERC20-approve}. NOTE: If `amount` is the maximum `uint256`, the allowance is not updated on `transferFrom`. This is semantically equivalent to an infinite approval. Requirements: - `spender` cannot be the zero address."
      },
      "balanceOf(address)": {
        "details": "See {IERC20-balanceOf}."
      },
      "decimals()": {
        "details": "Returns the number of decimals used to get its user representation. For example, if `decimals` equals `2`, a balance of `505` tokens should be displayed to a user as `5.05` (`505 / 10 ** 2`). Tokens usually opt for a value of 18, imitating the relationship between Ether and Wei. This is the value {ERC20} uses, unless this function is overridden; NOTE: This information is only used for _display_ purposes: it in no way affects any of the arithmetic of the contract, including {IERC20-balanceOf} and {IERC20-transfer}."
      },
      "decreaseAllowance(address,uint256)": {
        "details": "Atomically decreases the allowance granted to `spender` by the caller. This is an alternative to {approve} that can be used as a mitigation for problems described in {IERC20-approve}. Emits an {Approval} event indicating the updated allowance. Requirements: - `spender` cannot be the zero address. - `spender` must have allowance for the caller of at least `subtractedValue`."
      },
      "increaseAllowance(address,uint256)": {
        "details": "Atomically increases the allowance granted to `spender` by the caller. This is an alternative to {approve} that can be used as a mitigation for problems described in {IERC20-approve}. Emits an {Approval} event indicating the updated allowance. Requirements: - `spender` cannot be the zero address."
      },
      "name()": {
        "details": "Returns the name of the token."
      },
      "symbol()": {
        "details": "Returns the symbol of the token, usually a shorter version of the name."
      },
      "totalSupply()": {
        "details": "See {IERC20-totalSupply}."
      },
      "transfer(address,uint256)": {
        "details": "See {IERC20-transfer}. Requirements: - `to` cannot be the zero address. - the caller must have a balance of at least `amount`."
      },
      "transferFrom(address,address,uint256)": {
        "details": "See {IERC20-transferFrom}. Emits an {Approval} event indicating the updated allowance. This is not required by the EIP. See the note at the beginning of {ERC20}. NOTE: Does not update the allowance if the current allowance is the maximum `uint256`. Requirements: - `from` and `to` cannot be the zero address. - `from` must have a balance of at least `amount`. - the caller must have allowance for ``from``'s tokens of at least `amount`."
      }
    },
    "version": 1
  },
  "userdoc": {
    "kind": "user",
    "methods": {},
    "version": 1
  },
  "storageLayout": {
    "storage": [
      {
        "astId": 15,
        "contract": "src/TestToken.sol:TestToken",
        "label": "_balances",
        "offset": 0,
        "slot": "0",
        "type": "t_mapping(t_address,t_uint256)"
      },
      {
        "astId": 21,
        "contract": "src/TestToken.sol:TestToken",
        "label": "_allowances",
        "offset": 0,
        "slot": "1",
        "type": "t_mapping(t_address,t_mapping(t_address,t_uint256))"
      },
      {
        "astId": 23,
        "contract": "src/TestToken.sol:TestToken",
        "label": "_totalSupply",
        "offset": 0,
        "slot": "2",
        "type": "t_uint256"
      },
      {
        "astId": 25,
        "contract": "src/TestToken.sol:TestToken",
        "label": "_name",
        "offset": 0,
        "slot": "3",
        "type": "t_string_storage"
      },
      {
        "astId": 27,
        "contract": "src/TestToken.sol:TestToken",
        "label": "_symbol",
        "offset": 0,
        "slot": "4",
        "type": "t_string_storage"
      },
      {
        "astId": 718,
        "contract": "src/TestToken.sol:TestToken",
        "label": "decimalPlaces",
        "offset": 0,
        "slot": "5",
        "type": "t_uint8"
      }
    ],
    "types": {
      "t_address": {
        "encoding": "inplace",
        "label": "address",
        "numberOfBytes": "20"
      },
      "t_mapping(t_address,t_mapping(t_address,t_uint256))": {
        "encoding": "mapping",
        "key": "t_address",
        "label": "mapping(address => mapping(address => uint256))",
        "numberOfBytes": "32",
        "value": "t_mapping(t_address,t_uint256)"
      },
      "t_mapping(t_address,t_uint256)": {
        "encoding": "mapping",
        "key": "t_address",
        "label": "mapping(address => uint256)",
        "numberOfBytes": "32",
        "value": "t_uint256"
      },
      "t_string_storage": {
        "encoding": "bytes",
        "label": "string",
        "numberOfBytes": "32"
      },
      "t_uint256": {
        "encoding": "inplace",
        "label": "uint256",
        "numberOfBytes": "32"
      },
      "t_uint8": {
        "encoding": "inplace",
        "label": "uint8",
        "numberOfBytes": "1"
      }
    }
  }
}