{
  "address": "0x34ea9c40aba2c1Fdb8212f0F1719C568BF90F786",
  "abi": [
    {
      "inputs": [
        {
          "internalType": "address",
          "name": "_receiptNFT",
          "type": "address"
        }
      ],
      "stateMutability": "nonpayable",
      "type": "constructor"
    },
    {
      "anonymous": false,
      "inputs": [
        {
          "indexed": false,
          "internalType": "address",
          "name": "merchant",
          "type": "address"
        },
        {
          "indexed": false,
          "internalType": "address",
          "name": "posAddress",
          "type": "address"
        }
      ],
      "name": "POSCreated",
      "type": "event"
    },
    {
      "inputs": [
        {
          "internalType": "address",
          "name": "newOwner",
          "type": "address"
        }
      ],
      "name": "changeOwner",
      "outputs": [],
      "stateMutability": "nonpayable",
      "type": "function"
    },
    {
      "inputs": [
        {
          "internalType": "address",
          "name": "_adminPaymentAddress",
          "type": "address"
        }
      ],
      "name": "changePaymentAddress",
      "outputs": [],
      "stateMutability": "nonpayable",
      "type": "function"
    },
    {
      "inputs": [
        {
          "internalType": "string",
          "name": "_name",
          "type": "string"
        },
        {
          "internalType": "address",
          "name": "_paymentAddress",
          "type": "address"
        },
        {
          "internalType": "string",
          "name": "_ipfsProductLink",
          "type": "string"
        }
      ],
      "name": "createPOS",
      "outputs": [],
      "stateMutability": "nonpayable",
      "type": "function"
    },
    {
      "inputs": [
        {
          "internalType": "address",
          "name": "_owner",
          "type": "address"
        }
      ],
      "name": "getOwnerPOSAddresses",
      "outputs": [
        {
          "internalType": "address[]",
          "name": "",
          "type": "address[]"
        }
      ],
      "stateMutability": "view",
      "type": "function"
    },
    {
      "inputs": [
        {
          "internalType": "address",
          "name": "",
          "type": "address"
        },
        {
          "internalType": "uint256",
          "name": "",
          "type": "uint256"
        }
      ],
      "name": "ownerAddresses",
      "outputs": [
        {
          "internalType": "address",
          "name": "",
          "type": "address"
        }
      ],
      "stateMutability": "view",
      "type": "function"
    },
    {
      "inputs": [],
      "name": "posCount",
      "outputs": [
        {
          "internalType": "uint256",
          "name": "",
          "type": "uint256"
        }
      ],
      "stateMutability": "view",
      "type": "function"
    },
    {
      "inputs": [],
      "name": "receiptNFT",
      "outputs": [
        {
          "internalType": "address",
          "name": "",
          "type": "address"
        }
      ],
      "stateMutability": "view",
      "type": "function"
    }
  ],
  "transactionHash": "0x16485d225f9bf451d580f1dc1444db2ad1ff8e72b6acff8d866e24a6e808465f",
  "args": [
    "0xeB09dCD136A0f3558Dd222a942A94a28df748f7f"
  ],
  "numDeployments": 1,
  "solcInputHash": "66d9a52d8276f9a76634c31a155a6863",
  "bytecode": "0x60803461008457601f611d1938819003918201601f19168301916001600160401b038311848410176100895780849260209460405283398101031261008457516001600160a01b038116908190036100845760018060a01b031933816003541617600355338160025416176002556004541617600455604051611c7990816100a08239f35b600080fd5b634e487b7160e01b600052604160045260246000fdfe604060808152600490813610156200001657600080fd5b600091823560e01c80637124d61314620003f4578063920a980814620003d35780639ff26f6e1462000320578063a6f9dae114620002cc578063b12694ad1462000269578063cda3ad3b14620000a25763d7a7b899146200007657600080fd5b346200009e57826003193601126200009e575490516001600160a01b03909116815260209150f35b8280fd5b5091903462000265576060366003190112620002655767ffffffffffffffff83358181116200026157620000da9036908601620004ce565b6001600160a01b0391602435838116908190036200025d5760443582811162000259576200010c9036908901620004ce565b90846002541691858954169287519561169e8088019688881090881117620002465792620001799262000155899897969360c096620005a68b3960e0895260e08901906200052a565b926020880152308b880152606087015233608087015285820360a08701526200052a565b920152039084f080156200023a578116903384528360205282842080549068010000000000000000821015620002275781620001df9160017fad4c022295ffcdfa84f7a585bd6ff378616658e90f4324a63a6222ad85b208d69796959401815562000466565b819291549060031b9184831b921b19161790558151903382526020820152a16001546000198114620002145760010160015580f35b506011602492634e487b7160e01b835252fd5b634e487b7160e01b865260418752602486fd5b505051903d90823e3d90fd5b634e487b7160e01b8b5260418c5260248bfd5b8680fd5b8580fd5b8380fd5b5080fd5b5050346200026557806003193601126200026557620002876200044a565b6001600160a01b039081168352602083905281832080546024359490851015620002c95750602093620002ba9162000466565b92905490519260031b1c168152f35b80fd5b8334620002c9576020366003190112620002c957620002ea6200044a565b600354906001600160a01b03906200030633838516146200056c565b16906bffffffffffffffffffffffff60a01b161760035580f35b50503462000265576020806003193601126200009e576001600160a01b0392836200034a6200044a565b16815280825282812091835190818185549182815201908195855282852090855b818110620003bc57505050826200038491038362000495565b8451948186019282875251809352850193925b828110620003a55785850386f35b835187168552938101939281019260010162000397565b82548a16845292840192600192830192016200036b565b50503462000265578160031936011262000265576020906001549051908152f35b8334620002c9576020366003190112620002c957620004126200044a565b6003546001600160a01b0391906200042e90831633146200056c565b166bffffffffffffffffffffffff60a01b600254161760025580f35b600435906001600160a01b03821682036200046157565b600080fd5b80548210156200047f5760005260206000200190600090565b634e487b7160e01b600052603260045260246000fd5b90601f8019910116810190811067ffffffffffffffff821117620004b857604052565b634e487b7160e01b600052604160045260246000fd5b81601f82011215620004615780359067ffffffffffffffff8211620004b8576040519262000507601f8401601f19166020018562000495565b828452602083830101116200046157816000926020809301838601378301015290565b919082519283825260005b84811062000557575050826000602080949584010152601f8019910116010190565b60208183018101518483018201520162000535565b156200057457565b60405162461bcd60e51b815260206004820152600960248201526827b7363ca7bbb732b960b91b6044820152606490fdfe60806040523462000498576200169e803803806200001d816200049d565b92833981019060e081830312620004985780516001600160401b03908181116200049857836200004f918401620004d9565b90602091620000608385016200054b565b6200006e604086016200054b565b926200007d606087016200054b565b956200008c608082016200054b565b9760a0820151908382116200049857620000af60c091620000b7938501620004d9565b92016200054b565b91620000c33362000560565b60646005556000948560075580519482861162000484576001958654928784811c9416801562000479575b8b851014620004655781908b601f958681116200040f575b50508b90858311600114620003aa578a926200039e575b5050600019600383901b1c191690871b1786555b60018060a01b0380988160018060a01b03199316836002541617600255168160035416176003558760049a16908a541617895582519182116200038b5760089283548681811c9116801562000380575b8a8210146200036d579081838594931162000318575b5089918311600114620002b4578792620002a8575b5050600019600383901b1c191690841b1781555b600980546001600160a81b0319169290911b610100600160a81b03169190911791909117905554339082160362000266578316156200021457620002048362000560565b6040516110f69081620005a88239f35b60405162461bcd60e51b815291820152602660248201527f4f776e61626c653a206e6577206f776e657220697320746865207a65726f206160448201526564647265737360d01b606482015260849150fd5b60648383806040519262461bcd60e51b845283015260248201527f4f776e61626c653a2063616c6c6572206973206e6f7420746865206f776e65726044820152fd5b015190503880620001ac565b8488528988208794509190601f198416895b8c828210620003015750508411620002e7575b505050811b018155620001c0565b015160001960f88460031b161c19169055388080620002d9565b8385015186558a97909501949384019301620002c6565b909192508488528988208380860160051c8201928c871062000363575b9186958a929594930160051c01915b8281106200035457505062000197565b8a815586955089910162000344565b9250819262000335565b634e487b7160e01b885260228b52602488fd5b90607f169062000181565b634e487b7160e01b865260418952602486fd5b0151905038806200011d565b898b528c8b208a94509190601f1984168c8f5b828210620003f75750508411620003dd575b505050811b01865562000131565b015160001960f88460031b161c19169055388080620003cf565b8385015186558d979095019493840193018f620003bd565b90919250898b5285828c209181860160051c83019386106200045b575b918b91869594930160051c01915b8281106200044c57508d915062000106565b8c81558594508b91016200043a565b925081926200042c565b634e487b7160e01b89526022600452602489fd5b93607f1693620000ee565b634e487b7160e01b87526041600452602487fd5b600080fd5b6040519190601f01601f191682016001600160401b03811183821017620004c357604052565b634e487b7160e01b600052604160045260246000fd5b919080601f84011215620004985782516001600160401b038111620004c3576020906200050f601f8201601f191683016200049d565b92818452828287010111620004985760005b8181106200053757508260009394955001015290565b858101830151848201840152820162000521565b51906001600160a01b03821682036200049857565b600080546001600160a01b039283166001600160a01b03198216811783559216907f8be0079c531659141344cd1fd0a4f28419497f9722a3daafe3b4186f6b6457e09080a356fe608080604052600436101561001357600080fd5b600090813560e01c90816306fdde0314610bfa575080633dfe415e1461088d5780635e1e100414610842578063633423be14610819578063715018a6146107bf5780638da5cb5b14610798578063a7b722941461075f578063b6adaaff14610383578063ec7dd7bb1461024d578063f2fde38b146101825763f6a0bfd61461009a57600080fd5b3461017f578060031936011261017f5760405160006008546100bb81610cc5565b8084529060019081811690811561015857506001146100fd575b6100f9846100e581860382610cff565b604051918291602083526020830190610d37565b0390f35b6008600090815292507ff3f7a9fe364faab93b216da50a3214154f22a0a2b415b23a84c8169e8b636ee35b8284106101405750505081016020016100e5826100d5565b80546020858701810191909152909301928101610128565b60ff191660208087019190915292151560051b850190920192506100e591508390506100d5565b80fd5b503461017f57602036600319011261017f5761019c610d93565b6101a4610dae565b6001600160a01b039081169081156101f957600054826bffffffffffffffffffffffff60a01b821617600055167f8be0079c531659141344cd1fd0a4f28419497f9722a3daafe3b4186f6b6457e0600080a380f35b60405162461bcd60e51b815260206004820152602660248201527f4f776e61626c653a206e6577206f776e657220697320746865207a65726f206160448201526564647265737360d01b6064820152608490fd5b503461017f576020908160031936011261017f57506004359061026f82610e06565b5090600180920191600261028285610e06565b50015461028e85610e06565b50600301546001600160a01b03169060056102b660046102ad89610e06565b50015497610e06565b50015492604051956000918154916102cd83610cc5565b808a5292828116908115610363575060011461032c575b5050509161030f96916102fb8760ff950388610cff565b60405197889760a0895260a0890190610d37565b95870152604086015260a01c161515606084015260808301520390f35b60009081528781209093505b8284106103505750505085018401816102fb876102e4565b8054898501890152928701928101610338565b60ff1916898b0152505050151560051b860185019050816102fb876102e4565b5060208060031936011261075b576004356103a260ff60095416610e56565b6103ab81610e06565b5060048101805460ff8160a01c16610730576001600160a01b0319163317815560038201546001600160a01b039286918416806106d4575090506002810154340361069e578590836002541682808080612710946104168661040f34600554610e90565b0434610eb9565b90828215610695575bf11561068a57828080809388600454169061043c34600554610e90565b0490828215610681575bf115610674575b825460ff60a01b198116600160a01b1790935560095460405160019283018054919360089390931c87169285929161048483610cc5565b92868c848316928360001461065057505050600114610614575b505050600983826817b7333a173539b7b760b91b6104c6945203601619810185520183610cff565b803b156106105760408051636902622f60e11b81529486166004860152602485015283918290849082906104fe906044830190610d37565b03925af18015610605576105d5575b50908260049260095460081c166040519384809263224f2cf760e11b82525afa9182156105ca578492610575575b50916060917f8f4e00b4200dc5aca7c614efa3bad4a116d3f3121dff4359a0b5d2d4260f4dfe93604051923384528301526040820152a180f35b9150918082813d83116105c3575b61058d8183610cff565b810103126105bf57905190917f8f4e00b4200dc5aca7c614efa3bad4a116d3f3121dff4359a0b5d2d4260f4dfe61053b565b8380fd5b503d610583565b6040513d86823e3d90fd5b67ffffffffffffffff81959295116105f157604052928261050d565b634e487b7160e01b82526041600452602482fd5b6040513d87823e3d90fd5b8280fd5b8a935086528286209086915b838310610638575050508301016009836104c661049e565b80548784018601528c97508b94909201918101610620565b91945092506104c69550600994915060ff191682840152801515028201019261049e565b50604051903d90823e3d90fd5b506108fc610446565b6040513d84823e3d90fd5b506108fc61041f565b60405162461bcd60e51b815260048101869052600e60248201526d4e6f74456e6f7567684d6f6e657960901b6044820152606490fd5b61072b908560025416600284019061070b82549161070361271093846106fc82600554610e90565b0490610eb9565b903386610ec6565b8787541690610724896004541693600554905490610e90565b0492610ec6565b61044d565b60405162461bcd60e51b815260048082018790526024820152631410525160e21b6044820152606490fd5b5080fd5b503461017f578060031936011261017f57610778610dae565b602060095460ff8082161516809160ff1916176009556040519015158152f35b503461017f578060031936011261017f57546040516001600160a01b039091168152602090f35b503461017f578060031936011261017f576107d8610dae565b80546001600160a01b03198116825581906001600160a01b03167f8be0079c531659141344cd1fd0a4f28419497f9722a3daafe3b4186f6b6457e08280a380f35b503461017f578060031936011261017f576002546040516001600160a01b039091168152602090f35b503461017f57602036600319011261017f57602061085e610d93565b610866610dae565b600280546001600160a01b0319166001600160a01b03929092169182179055604051908152f35b503461017f57606036600319011261017f576004359067ffffffffffffffff821161017f573660238301121561017f5781600401356108cb81610d77565b926108d96040519485610cff565b81845236602483830101116106105781839260246020930183870137840101526024356001600160a01b038116810361075b5761091a60ff60095416610e56565b600754926040519360e0850185811067ffffffffffffffff821117610be6576040528452806020850152604435604085015260018060a01b03821660608501528260808501528260a08501524260c085015260065468010000000000000000811015610bd2578060016109909201600655610e06565b610bbe5784518155602085015194855167ffffffffffffffff8111610baa576109bc6001840154610cc5565b601f8111610b66575b506020601f8211600114610af157918160c092600594899a610aa99a92610ae6575b50508160011b916000199060031b1c19161760018501555b604081015160028501556003840160018060a01b036060830151166bffffffffffffffffffffffff60a01b8254161790556004840160018060a01b0360808301511681549060ff60a01b60a0850151151560a01b16916affffffffffffffffffffff60a81b161717905501519101557f81eed85c4f5059fe9762eae3dd842490b386054bde47350ddcb0373ab03a6b08600754938492604051918291604083526040830190610d37565b60443560208301526001600160a01b03909516940390a36000198114610ad25760010160075580f35b634e487b7160e01b82526011600452602482fd5b0151905038806109e7565b6001840187526020872097875b601f1984168110610b4e575082610aa998996005959360019360c096601f19811610610b35575b505050811b0160018501556109ff565b015160001960f88460031b161c19169055388080610b25565b828201518a5560019099019860209283019201610afe565b60018401875260208720601f830160051c810160208410610ba3575b601f830160051c82018110610b985750506109c5565b888155600101610b82565b5080610b82565b634e487b7160e01b86526041600452602486fd5b634e487b7160e01b84526004849052602484fd5b634e487b7160e01b84526041600452602484fd5b634e487b7160e01b85526041600452602485fd5b823461017f578060031936011261017f57806001805491610c1a83610cc5565b80865292828116908115610c9b5750600114610c41575b6100f9856100e581870382610cff565b92508083527fb10e2d527612073b26eecdfd717e6a320cf44b4afac2b0732d9fcbe2b7fa0cf65b828410610c835750505081016020016100e5826100f9610c31565b80546020858701810191909152909301928101610c68565b8695506100f9969350602092506100e594915060ff191682840152151560051b8201019293610c31565b90600182811c92168015610cf5575b6020831014610cdf57565b634e487b7160e01b600052602260045260246000fd5b91607f1691610cd4565b90601f8019910116810190811067ffffffffffffffff821117610d2157604052565b634e487b7160e01b600052604160045260246000fd5b919082519283825260005b848110610d63575050826000602080949584010152601f8019910116010190565b602081830181015184830182015201610d42565b67ffffffffffffffff8111610d2157601f01601f191660200190565b600435906001600160a01b0382168203610da957565b600080fd5b6000546001600160a01b03163303610dc257565b606460405162461bcd60e51b815260206004820152602060248201527f4f776e61626c653a2063616c6c6572206973206e6f7420746865206f776e65726044820152fd5b600654811015610e405760069081600052027ff652222313e28459528d920b65115c16c04f3efc82aaedc97be59f3f377c0d3f0190600090565b634e487b7160e01b600052603260045260246000fd5b15610e5d57565b60405162461bcd60e51b815260206004820152600b60248201526a14dd1bdc9950db1bdcd95960aa1b6044820152606490fd5b81810292918115918404141715610ea357565b634e487b7160e01b600052601160045260246000fd5b91908203918211610ea357565b6040516323b872dd60e01b60208083019182526001600160a01b039485166024840152948416604483015260648083019690965294815292939267ffffffffffffffff9260a082019284841183851017610d2157169060e081019383851090851117610d2157610f94936040528583527f5361666545524332303a206c6f772d6c6576656c2063616c6c206661696c656460c0820152600080958192519082855af13d1561101f573d91610f7983610d77565b92610f876040519485610cff565b83523d868885013e611023565b805180610fa2575b50505050565b8184918101031261075b578201519081159182150361017f5750610fc857808080610f9c565b6084906040519062461bcd60e51b82526004820152602a60248201527f5361666545524332303a204552433230206f7065726174696f6e20646964206e6044820152691bdd081cdd58d8d9595960b21b6064820152fd5b6060915b919290156110855750815115611037575090565b3b156110405790565b60405162461bcd60e51b815260206004820152601d60248201527f416464726573733a2063616c6c20746f206e6f6e2d636f6e74726163740000006044820152606490fd5b8251909150156110985750805190602001fd5b60405162461bcd60e51b8152602060048201529081906110bc906024830190610d37565b0390fdfea26469706673582212202ab205ad9aec311286a2b73f0d653d11a0c536958ded0a0b7f8b451aad658a6064736f6c63430008120033a26469706673582212206936a6a1a5f8447d638b556c4d7c207e063235659031f65a35453a66ec7a55ce64736f6c63430008120033",
  "devdoc": {
    "kind": "dev",
    "methods": {},
    "version": 1
  },
  "userdoc": {
    "kind": "user",
    "methods": {},
    "version": 1
  },
  "storageLayout": {
    "storage": [
      {
        "astId": 13753,
        "contract": "src/POSFactory.sol:POSFactory",
        "label": "ownerAddresses",
        "offset": 0,
        "slot": "0",
        "type": "t_mapping(t_address,t_array(t_address)dyn_storage)"
      },
      {
        "astId": 13755,
        "contract": "src/POSFactory.sol:POSFactory",
        "label": "posCount",
        "offset": 0,
        "slot": "1",
        "type": "t_uint256"
      },
      {
        "astId": 13757,
        "contract": "src/POSFactory.sol:POSFactory",
        "label": "adminPaymentAddress",
        "offset": 0,
        "slot": "2",
        "type": "t_address"
      },
      {
        "astId": 13759,
        "contract": "src/POSFactory.sol:POSFactory",
        "label": "owner",
        "offset": 0,
        "slot": "3",
        "type": "t_address"
      },
      {
        "astId": 13761,
        "contract": "src/POSFactory.sol:POSFactory",
        "label": "receiptNFT",
        "offset": 0,
        "slot": "4",
        "type": "t_address"
      }
    ],
    "types": {
      "t_address": {
        "encoding": "inplace",
        "label": "address",
        "numberOfBytes": "20"
      },
      "t_array(t_address)dyn_storage": {
        "base": "t_address",
        "encoding": "dynamic_array",
        "label": "address[]",
        "numberOfBytes": "32"
      },
      "t_mapping(t_address,t_array(t_address)dyn_storage)": {
        "encoding": "mapping",
        "key": "t_address",
        "label": "mapping(address => address[])",
        "numberOfBytes": "32",
        "value": "t_array(t_address)dyn_storage"
      },
      "t_uint256": {
        "encoding": "inplace",
        "label": "uint256",
        "numberOfBytes": "32"
      }
    }
  }
}