{
  "address": "0xeB09dCD136A0f3558Dd222a942A94a28df748f7f",
  "abi": [
    {
      "inputs": [],
      "stateMutability": "nonpayable",
      "type": "constructor"
    },
    {
      "anonymous": false,
      "inputs": [
        {
          "indexed": true,
          "internalType": "address",
          "name": "owner",
          "type": "address"
        },
        {
          "indexed": true,
          "internalType": "address",
          "name": "approved",
          "type": "address"
        },
        {
          "indexed": true,
          "internalType": "uint256",
          "name": "tokenId",
          "type": "uint256"
        }
      ],
      "name": "Approval",
      "type": "event"
    },
    {
      "anonymous": false,
      "inputs": [
        {
          "indexed": true,
          "internalType": "address",
          "name": "owner",
          "type": "address"
        },
        {
          "indexed": true,
          "internalType": "address",
          "name": "operator",
          "type": "address"
        },
        {
          "indexed": false,
          "internalType": "bool",
          "name": "approved",
          "type": "bool"
        }
      ],
      "name": "ApprovalForAll",
      "type": "event"
    },
    {
      "anonymous": false,
      "inputs": [
        {
          "indexed": true,
          "internalType": "address",
          "name": "previousOwner",
          "type": "address"
        },
        {
          "indexed": true,
          "internalType": "address",
          "name": "newOwner",
          "type": "address"
        }
      ],
      "name": "OwnershipTransferred",
      "type": "event"
    },
    {
      "anonymous": false,
      "inputs": [
        {
          "indexed": true,
          "internalType": "address",
          "name": "from",
          "type": "address"
        },
        {
          "indexed": true,
          "internalType": "address",
          "name": "to",
          "type": "address"
        },
        {
          "indexed": true,
          "internalType": "uint256",
          "name": "tokenId",
          "type": "uint256"
        }
      ],
      "name": "Transfer",
      "type": "event"
    },
    {
      "inputs": [
        {
          "internalType": "address",
          "name": "to",
          "type": "address"
        },
        {
          "internalType": "uint256",
          "name": "tokenId",
          "type": "uint256"
        }
      ],
      "name": "approve",
      "outputs": [],
      "stateMutability": "nonpayable",
      "type": "function"
    },
    {
      "inputs": [
        {
          "internalType": "address",
          "name": "owner",
          "type": "address"
        }
      ],
      "name": "balanceOf",
      "outputs": [
        {
          "internalType": "uint256",
          "name": "",
          "type": "uint256"
        }
      ],
      "stateMutability": "view",
      "type": "function"
    },
    {
      "inputs": [],
      "name": "baseUri",
      "outputs": [
        {
          "internalType": "string",
          "name": "",
          "type": "string"
        }
      ],
      "stateMutability": "view",
      "type": "function"
    },
    {
      "inputs": [],
      "name": "currentTokenCounter",
      "outputs": [
        {
          "internalType": "uint256",
          "name": "",
          "type": "uint256"
        }
      ],
      "stateMutability": "view",
      "type": "function"
    },
    {
      "inputs": [
        {
          "internalType": "uint256",
          "name": "tokenId",
          "type": "uint256"
        }
      ],
      "name": "getApproved",
      "outputs": [
        {
          "internalType": "address",
          "name": "",
          "type": "address"
        }
      ],
      "stateMutability": "view",
      "type": "function"
    },
    {
      "inputs": [
        {
          "internalType": "address",
          "name": "owner",
          "type": "address"
        },
        {
          "internalType": "address",
          "name": "operator",
          "type": "address"
        }
      ],
      "name": "isApprovedForAll",
      "outputs": [
        {
          "internalType": "bool",
          "name": "",
          "type": "bool"
        }
      ],
      "stateMutability": "view",
      "type": "function"
    },
    {
      "inputs": [],
      "name": "name",
      "outputs": [
        {
          "internalType": "string",
          "name": "",
          "type": "string"
        }
      ],
      "stateMutability": "view",
      "type": "function"
    },
    {
      "inputs": [],
      "name": "owner",
      "outputs": [
        {
          "internalType": "address",
          "name": "",
          "type": "address"
        }
      ],
      "stateMutability": "view",
      "type": "function"
    },
    {
      "inputs": [
        {
          "internalType": "uint256",
          "name": "tokenId",
          "type": "uint256"
        }
      ],
      "name": "ownerOf",
      "outputs": [
        {
          "internalType": "address",
          "name": "",
          "type": "address"
        }
      ],
      "stateMutability": "view",
      "type": "function"
    },
    {
      "inputs": [],
      "name": "renounceOwnership",
      "outputs": [],
      "stateMutability": "nonpayable",
      "type": "function"
    },
    {
      "inputs": [
        {
          "internalType": "address",
          "name": "to",
          "type": "address"
        },
        {
          "internalType": "string",
          "name": "uri",
          "type": "string"
        }
      ],
      "name": "safeMint",
      "outputs": [],
      "stateMutability": "nonpayable",
      "type": "function"
    },
    {
      "inputs": [
        {
          "internalType": "address",
          "name": "from",
          "type": "address"
        },
        {
          "internalType": "address",
          "name": "to",
          "type": "address"
        },
        {
          "internalType": "uint256",
          "name": "tokenId",
          "type": "uint256"
        }
      ],
      "name": "safeTransferFrom",
      "outputs": [],
      "stateMutability": "nonpayable",
      "type": "function"
    },
    {
      "inputs": [
        {
          "internalType": "address",
          "name": "from",
          "type": "address"
        },
        {
          "internalType": "address",
          "name": "to",
          "type": "address"
        },
        {
          "internalType": "uint256",
          "name": "tokenId",
          "type": "uint256"
        },
        {
          "internalType": "bytes",
          "name": "data",
          "type": "bytes"
        }
      ],
      "name": "safeTransferFrom",
      "outputs": [],
      "stateMutability": "nonpayable",
      "type": "function"
    },
    {
      "inputs": [
        {
          "internalType": "address",
          "name": "operator",
          "type": "address"
        },
        {
          "internalType": "bool",
          "name": "approved",
          "type": "bool"
        }
      ],
      "name": "setApprovalForAll",
      "outputs": [],
      "stateMutability": "nonpayable",
      "type": "function"
    },
    {
      "inputs": [
        {
          "internalType": "string",
          "name": "newUri",
          "type": "string"
        }
      ],
      "name": "setBaseURI",
      "outputs": [],
      "stateMutability": "nonpayable",
      "type": "function"
    },
    {
      "inputs": [
        {
          "internalType": "bytes4",
          "name": "interfaceId",
          "type": "bytes4"
        }
      ],
      "name": "supportsInterface",
      "outputs": [
        {
          "internalType": "bool",
          "name": "",
          "type": "bool"
        }
      ],
      "stateMutability": "view",
      "type": "function"
    },
    {
      "inputs": [],
      "name": "symbol",
      "outputs": [
        {
          "internalType": "string",
          "name": "",
          "type": "string"
        }
      ],
      "stateMutability": "view",
      "type": "function"
    },
    {
      "inputs": [
        {
          "internalType": "uint256",
          "name": "tokenId",
          "type": "uint256"
        }
      ],
      "name": "tokenURI",
      "outputs": [
        {
          "internalType": "string",
          "name": "",
          "type": "string"
        }
      ],
      "stateMutability": "view",
      "type": "function"
    },
    {
      "inputs": [
        {
          "internalType": "address",
          "name": "from",
          "type": "address"
        },
        {
          "internalType": "address",
          "name": "to",
          "type": "address"
        },
        {
          "internalType": "uint256",
          "name": "tokenId",
          "type": "uint256"
        }
      ],
      "name": "transferFrom",
      "outputs": [],
      "stateMutability": "nonpayable",
      "type": "function"
    },
    {
      "inputs": [
        {
          "internalType": "address",
          "name": "newOwner",
          "type": "address"
        }
      ],
      "name": "transferOwnership",
      "outputs": [],
      "stateMutability": "nonpayable",
      "type": "function"
    }
  ],
  "transactionHash": "0xed24fa427c7c7823bedb2e10f77a6cefc09f678c3a2976a7aca9623b5776b1da",
  "args": [],
  "numDeployments": 1,
  "solcInputHash": "66d9a52d8276f9a76634c31a155a6863",
  "bytecode": "0x60803462000317576040906001600160401b03908083018281118282101762000301578352600e81526020906d53746f726546726f6e7420504f5360901b8282015283518481018181108582111762000301578552600381526214d19560ea1b838201528151938085116200030157600094806200007e87546200031c565b94601f95868111620002d1575b508690868311600114620002695788926200025d575b50508160011b916000199060031b1c19161785555b8151908111620002495780600192620000d084546200031c565b8581116200020e575b508590858311600114620001aa5787926200019e575b5050600019600383901b1c191690821b1790555b60078054336001600160a01b0319821681179092556001600160a01b03167f8be0079c531659141344cd1fd0a4f28419497f9722a3daafe3b4186f6b6457e08580a3620001526009546200031c565b918183116200017c575b600e66697066733a2f2f60c81b01600955845161195b9081620003738239f35b83600962000194955220910160051c81019062000359565b388080806200015c565b015190503880620000ef565b8488528688208594509190601f198416895b89828210620001f75750508411620001dd575b505050811b01905562000103565b015160001960f88460031b161c19169055388080620001cf565b8385015186558897909501949384019301620001bc565b62000238908589528789208780860160051c8201928a87106200023f575b0160051c019062000359565b38620000d9565b925081926200022c565b634e487b7160e01b85526041600452602485fd5b015190503880620000a1565b8880528789209250601f198416895b89828210620002ba575050908460019594939210620002a0575b505050811b018555620000b6565b015160001960f88460031b161c1916905538808062000292565b600185968293968601518155019501930162000278565b620002fa90898052888a208880860160051c8201928b87106200023f570160051c019062000359565b386200008b565b634e487b7160e01b600052604160045260246000fd5b600080fd5b90600182811c921680156200034e575b60208310146200033857565b634e487b7160e01b600052602260045260246000fd5b91607f16916200032c565b81811062000365575050565b600081556001016200035956fe6080604081815260048036101561001557600080fd5b600092833560e01c90816301ffc9a714610d865750806306fdde0314610cde578063081812fc14610cbe578063095ea7b314610b5157806323b872dd14610b2c57806342842e0e14610af8578063449e59ee14610ad957806355f804b31461096d5780636352211e1461093c57806370a08231146108a6578063715018a6146108495780638da5cb5b1461082057806395d89b41146107785780639abc8320146106a5578063a22cb465146105d6578063b88d4fde14610551578063c87b56dd14610516578063d204c45e1461021f578063e985e9c5146101cd5763f2fde38b146100ff57600080fd5b346101c95760203660031901126101c957610118610e3a565b9061012161104b565b6001600160a01b03918216928315610177575050600754826bffffffffffffffffffffffff60a01b821617600755167f8be0079c531659141344cd1fd0a4f28419497f9722a3daafe3b4186f6b6457e08380a380f35b906020608492519162461bcd60e51b8352820152602660248201527f4f776e61626c653a206e6577206f776e657220697320746865207a65726f206160448201526564647265737360d01b6064820152fd5b8280fd5b50503461021b578060031936011261021b5760ff816020936101ed610e3a565b6101f5610e55565b6001600160a01b0391821683526005875283832091168252855220549151911615158152f35b5080fd5b5090346101c957806003193601126101c957610239610e3a565b9067ffffffffffffffff906024358281116105125761025b9036908601610f47565b9060085460019485820160085582519061027482610ea0565b8882526001600160a01b03811680156104cf5783928361033e9381610339946102bf8f9b9a996102b990600052600260205260018060a01b0360406000205416151590565b156115ae565b6000828152600260205260409020546102e2906001600160a01b031615156102b9565b808b5260036020908152898c2080548f019055828c5260028152898c2080546001600160a01b031916831790559a7fddf252ad1be2c89b69c2b068fc378daa952ba7f163c4a11628f55a4df523b3ef8180a4611407565b611205565b6000818152600260205260409020546001600160a01b03161561047557875260068352862094815193841161046257506103788554610f65565b601f811161041c575b5081601f84116001146103bb575092829391839287946103b0575b50501b916000199060031b1c191617905580f35b01519250388061039c565b919083601f1981168789528489209489905b8883831061040257505050106103e9575b505050811b01905580f35b015160001960f88460031b161c191690553880806103de565b8587015188559096019594850194879350908101906103cd565b858752828720601f850160051c810191848610610458575b601f0160051c019085905b82811061044d575050610381565b88815501859061043f565b9091508190610434565b634e487b7160e01b875260419052602486fd5b815162461bcd60e51b8152808801859052602e60248201527f45524337323155524953746f726167653a2055524920736574206f66206e6f6e60448201526d32bc34b9ba32b73a103a37b5b2b760911b6064820152608490fd5b845162461bcd60e51b81526020818b0181905260248201527f4552433732313a206d696e7420746f20746865207a65726f20616464726573736044820152606490fd5b8580fd5b50913461054e57602036600319011261054e575061053761054a92356115fa565b9051918291602083526020830190610e15565b0390f35b80fd5b83823461021b57608036600319011261021b5761056c610e3a565b90610575610e55565b916044356064359367ffffffffffffffff85116105125736602386011215610512576105b0610339948660246105d398369301359101610f10565b926105c36105be8433611229565b611150565b6105ce8383836112f1565b611523565b80f35b5090346101c957806003193601126101c9576105f0610e3a565b90602435918215158093036106a1576001600160a01b03169233841461065f5750338452600560205280842083855260205280842060ff1981541660ff8416179055519081527f17307eab39ab6107e8899845ad3d59bd9653f200f220920489ca2b5937696c3160203392a380f35b6020606492519162461bcd60e51b8352820152601960248201527f4552433732313a20617070726f766520746f2063616c6c6572000000000000006044820152fd5b8480fd5b50503461021b578160031936011261021b57805190826009546106c781610f65565b808552916001918083169081156107505750600114610705575b5050506106f38261054a940383610ed2565b51918291602083526020830190610e15565b9450600985526000805160206119068339815191525b828610610738575050506106f382602061054a95820101946106e1565b8054602087870181019190915290950194810161071b565b61054a9750869350602092506106f394915060ff191682840152151560051b820101946106e1565b50503461021b578160031936011261021b5780519082600180549161079c83610f65565b8086529282811690811561075057506001146107c4575050506106f38261054a940383610ed2565b94508085527fb10e2d527612073b26eecdfd717e6a320cf44b4afac2b0732d9fcbe2b7fa0cf65b828610610808575050506106f382602061054a95820101946106e1565b805460208787018101919091529095019481016107eb565b50503461021b578160031936011261021b5760075490516001600160a01b039091168152602090f35b833461054e578060031936011261054e5761086261104b565b600780546001600160a01b0319811690915581906001600160a01b03167f8be0079c531659141344cd1fd0a4f28419497f9722a3daafe3b4186f6b6457e08280a380f35b5082903461021b57602036600319011261021b576001600160a01b036108ca610e3a565b169081156108e75760208480858581526003845220549051908152f35b608490602085519162461bcd60e51b8352820152602960248201527f4552433732313a2061646472657373207a65726f206973206e6f7420612076616044820152683634b21037bbb732b960b91b6064820152fd5b50913461054e57602036600319011261054e575061095c602092356110ef565b90516001600160a01b039091168152f35b50823461054e5760208060031936011261021b5767ffffffffffffffff908335828111610ad5576109a19036908601610f47565b936109aa61104b565b8451928311610ac257506109bf600954610f65565b601f8111610a72575b5080601f8311600114610a03575082938293926109f8575b50508160011b916000199060031b1c19161760095580f35b0151905083806109e0565b60098452601f19831694600080516020611906833981519152929185905b878210610a5a575050836001959610610a41575b505050811b0160095580f35b015160001960f88460031b161c19169055838080610a35565b80600185968294968601518155019501930190610a21565b60098452600080516020611906833981519152601f840160051c810191838510610ab8575b601f0160051c01905b818110610aad57506109c8565b848155600101610aa0565b9091508190610a97565b634e487b7160e01b845260419052602483fd5b8380fd5b50503461021b578160031936011261021b576020906008549051908152f35b50503461021b576103396105d391610b0f36610e6b565b91925192610b1c84610ea0565b8684526105c36105be8433611229565b833461054e576105d3610b3e36610e6b565b91610b4c6105be8433611229565b6112f1565b50346101c957816003193601126101c957610b6a610e3a565b6024359290916001600160a01b0391908280610b85876110ef565b16941693808514610c7157803314908115610c52575b5015610bea57848652602052842080546001600160a01b03191683179055610bc2836110ef565b167f8c5be1e5ebec7d5bd14f71427d1e84f3dd0314c0f7b2291e5b200ac8c7c3b9258480a480f35b6020608492519162461bcd60e51b8352820152603d60248201527f4552433732313a20617070726f76652063616c6c6572206973206e6f7420746f60448201527f6b656e206f776e6572206f7220617070726f76656420666f7220616c6c0000006064820152fd5b90508652600560205281862033875260205260ff828720541638610b9b565b506020608492519162461bcd60e51b8352820152602160248201527f4552433732313a20617070726f76616c20746f2063757272656e74206f776e656044820152603960f91b6064820152fd5b50913461054e57602036600319011261054e575061095c60209235611112565b50503461021b578160031936011261021b57805190828054610cff81610f65565b808552916001918083169081156107505750600114610d2a575050506106f38261054a940383610ed2565b80809650527f290decd9548b62a8d60345a988386fc84ba6bc95484008f6362f93160ef3e5635b828610610d6e575050506106f382602061054a95820101946106e1565b80546020878701810191909152909501948101610d51565b925050346101c95760203660031901126101c9573563ffffffff60e01b81168091036101c957602092506380ac58cd60e01b8114908115610de1575b8115610dd0575b5015158152f35b6301ffc9a760e01b14905038610dc9565b635b5e139f60e01b81149150610dc2565b60005b838110610e055750506000910152565b8181015183820152602001610df5565b90602091610e2e81518092818552858086019101610df2565b601f01601f1916010190565b600435906001600160a01b0382168203610e5057565b600080fd5b602435906001600160a01b0382168203610e5057565b6060906003190112610e50576001600160a01b03906004358281168103610e5057916024359081168103610e50579060443590565b6020810190811067ffffffffffffffff821117610ebc57604052565b634e487b7160e01b600052604160045260246000fd5b90601f8019910116810190811067ffffffffffffffff821117610ebc57604052565b67ffffffffffffffff8111610ebc57601f01601f191660200190565b929192610f1c82610ef4565b91610f2a6040519384610ed2565b829481845281830111610e50578281602093846000960137010152565b9080601f83011215610e5057816020610f6293359101610f10565b90565b90600182811c92168015610f95575b6020831014610f7f57565b634e487b7160e01b600052602260045260246000fd5b91607f1691610f74565b6040519060008260095491610fb383610f65565b808352926001908181169081156110295750600114610fdc575b50610fda92500383610ed2565b565b6009600090815291506000805160206119068339815191525b84831061100e5750610fda935050810160200138610fcd565b81935090816020925483858a01015201910190918592610ff5565b905060209250610fda94915060ff191682840152151560051b82010138610fcd565b6007546001600160a01b0316330361105f57565b606460405162461bcd60e51b815260206004820152602060248201527f4f776e61626c653a2063616c6c6572206973206e6f7420746865206f776e65726044820152fd5b156110aa57565b60405162461bcd60e51b815260206004820152601860248201527f4552433732313a20696e76616c696420746f6b656e20494400000000000000006044820152606490fd5b6000908152600260205260409020546001600160a01b0316610f628115156110a3565b600081815260026020526040902054611135906001600160a01b031615156110a3565b6000908152600460205260409020546001600160a01b031690565b1561115757565b60405162461bcd60e51b815260206004820152602d60248201527f4552433732313a2063616c6c6572206973206e6f7420746f6b656e206f776e6560448201526c1c881bdc88185c1c1c9bdd9959609a1b6064820152608490fd5b60809060208152603260208201527f4552433732313a207472616e7366657220746f206e6f6e20455243373231526560408201527131b2b4bb32b91034b6b83632b6b2b73a32b960711b60608201520190565b1561120c57565b60405162461bcd60e51b815280611225600482016111b2565b0390fd5b906001600160a01b03808061123d846110ef565b16931691838314938415611270575b50831561125a575b50505090565b61126691929350611112565b1614388080611254565b909350600052600560205260406000208260005260205260ff60406000205416923861124c565b1561129e57565b60405162461bcd60e51b815260206004820152602560248201527f4552433732313a207472616e736665722066726f6d20696e636f72726563742060448201526437bbb732b960d91b6064820152608490fd5b90611319916112ff846110ef565b6001600160a01b0393918416928492909183168414611297565b169182156113b657816113369161132f866110ef565b1614611297565b7fddf252ad1be2c89b69c2b068fc378daa952ba7f163c4a11628f55a4df523b3ef60008481526004602052604081206bffffffffffffffffffffffff60a01b9081815416905583825260036020526040822060001981540190558482526040822060018154019055858252600260205284604083209182541617905580a4565b60405162461bcd60e51b8152602060048201526024808201527f4552433732313a207472616e7366657220746f20746865207a65726f206164646044820152637265737360e01b6064820152608490fd5b9192600092909190803b1561151957611455946040518092630a85bd0160e11b9485835233600484015287602484015260448301526080606483015281878160209a8b966084830190610e15565b03926001600160a01b03165af18491816114d9575b506114c8575050503d6000146114c0573d61148481610ef4565b906114926040519283610ed2565b81528091833d92013e5b805191826114bd5760405162461bcd60e51b815280611225600482016111b2565b01fd5b50606061149c565b6001600160e01b0319161492509050565b9091508581813d8311611512575b6114f18183610ed2565b810103126106a157516001600160e01b0319811681036106a157903861146a565b503d6114e7565b5050915050600190565b9293600093909291803b156115a35794849161157d9660405180948193630a85bd0160e11b9788845233600485015260018060a01b0380921660248501526044840152608060648401528260209b8c976084830190610e15565b0393165af18491816114d957506114c8575050503d6000146114c0573d61148481610ef4565b505050915050600190565b156115b557565b60405162461bcd60e51b815260206004820152601c60248201527f4552433732313a20746f6b656e20616c7265616479206d696e746564000000006044820152606490fd5b60008181526002602052604090205461161d906001600160a01b031615156110a3565b60008181526020906006825260409081812091805182938054948261164187610f65565b91828252888201936001988a8a821691826000146118e75750506001146118a9575b5061167092500383610ed2565b611678610f9f565b90815192831561189d578051611879575050506000868152600260205260409020546116af91506001600160a01b031615156110a3565b6116b7610f9f565b8051909390156118635785869184977a184f03e93ff9f4daa797ed6e38ed64bf6a1f0100000000000000009081811015611854575b50506d04ee2d6d415b85acef810000000080841015611846575b50662386f26fc1000080841015611837575b506305f5e10080841015611828575b5061271080841015611819575b506064831015611809575b600a80931015611800575b90816021818a019961177361175e8c610ef4565b9b61176b89519d8e610ed2565b808d52610ef4565b8b8b019890601f1901368a37508a0101905b6117ca575b50505050906117be94610f629493925195836117af8895518092888089019101610df2565b84019151809386840190610df2565b01038084520182610ed2565b600019019083906f181899199a1a9b1b9c1cb0b131b232b360811b8282061a8353049182156117fb57919082611785565b61178a565b8097019661174a565b969160646002910492019661173f565b60049198930492019638611734565b60089198930492019638611727565b60109198930492019638611718565b879198930492019638611706565b949850889404925038806116ec565b509250925050519061187482610ea0565b815290565b92975092610f629695506117be9194506117af889151988996888089019101610df2565b97505050505050505090565b915050855282878087208888915b8583106118ce575050611670935082010138611663565b80919294505483858901015201910188908886936118b7565b60ff1916875261167095151560051b8501019250389150611663905056fe6e1540171b6c0c960b71a7020d9f60077f6af931a8bbf590da0223dacf75c7afa2646970667358221220c9457a3e656f4a4125d225541f2ee60421fbfc5e8aeff70688ace389221bbdf864736f6c63430008120033",
  "devdoc": {
    "events": {
      "Approval(address,address,uint256)": {
        "details": "Emitted when `owner` enables `approved` to manage the `tokenId` token."
      },
      "ApprovalForAll(address,address,bool)": {
        "details": "Emitted when `owner` enables or disables (`approved`) `operator` to manage all of its assets."
      },
      "Transfer(address,address,uint256)": {
        "details": "Emitted when `tokenId` token is transferred from `from` to `to`."
      }
    },
    "kind": "dev",
    "methods": {
      "approve(address,uint256)": {
        "details": "See {IERC721-approve}."
      },
      "balanceOf(address)": {
        "details": "See {IERC721-balanceOf}."
      },
      "getApproved(uint256)": {
        "details": "See {IERC721-getApproved}."
      },
      "isApprovedForAll(address,address)": {
        "details": "See {IERC721-isApprovedForAll}."
      },
      "name()": {
        "details": "See {IERC721Metadata-name}."
      },
      "owner()": {
        "details": "Returns the address of the current owner."
      },
      "ownerOf(uint256)": {
        "details": "See {IERC721-ownerOf}."
      },
      "renounceOwnership()": {
        "details": "Leaves the contract without owner. It will not be possible to call `onlyOwner` functions anymore. Can only be called by the current owner. NOTE: Renouncing ownership will leave the contract without an owner, thereby removing any functionality that is only available to the owner."
      },
      "safeTransferFrom(address,address,uint256)": {
        "details": "See {IERC721-safeTransferFrom}."
      },
      "safeTransferFrom(address,address,uint256,bytes)": {
        "details": "See {IERC721-safeTransferFrom}."
      },
      "setApprovalForAll(address,bool)": {
        "details": "See {IERC721-setApprovalForAll}."
      },
      "supportsInterface(bytes4)": {
        "details": "See {IERC165-supportsInterface}."
      },
      "symbol()": {
        "details": "See {IERC721Metadata-symbol}."
      },
      "transferFrom(address,address,uint256)": {
        "details": "See {IERC721-transferFrom}."
      },
      "transferOwnership(address)": {
        "details": "Transfers ownership of the contract to a new account (`newOwner`). Can only be called by the current owner."
      }
    },
    "version": 1
  },
  "userdoc": {
    "kind": "user",
    "methods": {},
    "version": 1
  },
  "storageLayout": {
    "storage": [
      {
        "astId": 1145,
        "contract": "src/StoreFrontNFTReceipt.sol:StoreFrontNFTReceipt",
        "label": "_name",
        "offset": 0,
        "slot": "0",
        "type": "t_string_storage"
      },
      {
        "astId": 1147,
        "contract": "src/StoreFrontNFTReceipt.sol:StoreFrontNFTReceipt",
        "label": "_symbol",
        "offset": 0,
        "slot": "1",
        "type": "t_string_storage"
      },
      {
        "astId": 1151,
        "contract": "src/StoreFrontNFTReceipt.sol:StoreFrontNFTReceipt",
        "label": "_owners",
        "offset": 0,
        "slot": "2",
        "type": "t_mapping(t_uint256,t_address)"
      },
      {
        "astId": 1155,
        "contract": "src/StoreFrontNFTReceipt.sol:StoreFrontNFTReceipt",
        "label": "_balances",
        "offset": 0,
        "slot": "3",
        "type": "t_mapping(t_address,t_uint256)"
      },
      {
        "astId": 1159,
        "contract": "src/StoreFrontNFTReceipt.sol:StoreFrontNFTReceipt",
        "label": "_tokenApprovals",
        "offset": 0,
        "slot": "4",
        "type": "t_mapping(t_uint256,t_address)"
      },
      {
        "astId": 1165,
        "contract": "src/StoreFrontNFTReceipt.sol:StoreFrontNFTReceipt",
        "label": "_operatorApprovals",
        "offset": 0,
        "slot": "5",
        "type": "t_mapping(t_address,t_mapping(t_address,t_bool))"
      },
      {
        "astId": 2193,
        "contract": "src/StoreFrontNFTReceipt.sol:StoreFrontNFTReceipt",
        "label": "_tokenURIs",
        "offset": 0,
        "slot": "6",
        "type": "t_mapping(t_uint256,t_string_storage)"
      },
      {
        "astId": 7,
        "contract": "src/StoreFrontNFTReceipt.sol:StoreFrontNFTReceipt",
        "label": "_owner",
        "offset": 0,
        "slot": "7",
        "type": "t_address"
      },
      {
        "astId": 13902,
        "contract": "src/StoreFrontNFTReceipt.sol:StoreFrontNFTReceipt",
        "label": "_tokenIdCounter",
        "offset": 0,
        "slot": "8",
        "type": "t_struct(Counter)2690_storage"
      },
      {
        "astId": 13905,
        "contract": "src/StoreFrontNFTReceipt.sol:StoreFrontNFTReceipt",
        "label": "baseUri",
        "offset": 0,
        "slot": "9",
        "type": "t_string_storage"
      }
    ],
    "types": {
      "t_address": {
        "encoding": "inplace",
        "label": "address",
        "numberOfBytes": "20"
      },
      "t_bool": {
        "encoding": "inplace",
        "label": "bool",
        "numberOfBytes": "1"
      },
      "t_mapping(t_address,t_bool)": {
        "encoding": "mapping",
        "key": "t_address",
        "label": "mapping(address => bool)",
        "numberOfBytes": "32",
        "value": "t_bool"
      },
      "t_mapping(t_address,t_mapping(t_address,t_bool))": {
        "encoding": "mapping",
        "key": "t_address",
        "label": "mapping(address => mapping(address => bool))",
        "numberOfBytes": "32",
        "value": "t_mapping(t_address,t_bool)"
      },
      "t_mapping(t_address,t_uint256)": {
        "encoding": "mapping",
        "key": "t_address",
        "label": "mapping(address => uint256)",
        "numberOfBytes": "32",
        "value": "t_uint256"
      },
      "t_mapping(t_uint256,t_address)": {
        "encoding": "mapping",
        "key": "t_uint256",
        "label": "mapping(uint256 => address)",
        "numberOfBytes": "32",
        "value": "t_address"
      },
      "t_mapping(t_uint256,t_string_storage)": {
        "encoding": "mapping",
        "key": "t_uint256",
        "label": "mapping(uint256 => string)",
        "numberOfBytes": "32",
        "value": "t_string_storage"
      },
      "t_string_storage": {
        "encoding": "bytes",
        "label": "string",
        "numberOfBytes": "32"
      },
      "t_struct(Counter)2690_storage": {
        "encoding": "inplace",
        "label": "struct Counters.Counter",
        "members": [
          {
            "astId": 2689,
            "contract": "src/StoreFrontNFTReceipt.sol:StoreFrontNFTReceipt",
            "label": "_value",
            "offset": 0,
            "slot": "0",
            "type": "t_uint256"
          }
        ],
        "numberOfBytes": "32"
      },
      "t_uint256": {
        "encoding": "inplace",
        "label": "uint256",
        "numberOfBytes": "32"
      }
    }
  }
}